{
  "contractName": "Marketplace",
  "abi": [
    {
      "inputs": [],
      "stateMutability": "nonpayable",
      "type": "constructor"
    },
    {
      "anonymous": false,
      "inputs": [
        {
          "indexed": true,
          "internalType": "address",
          "name": "account",
          "type": "address"
        },
        {
          "indexed": true,
          "internalType": "address",
          "name": "operator",
          "type": "address"
        },
        {
          "indexed": false,
          "internalType": "bool",
          "name": "approved",
          "type": "bool"
        }
      ],
      "name": "ApprovalForAll",
      "type": "event"
    },
    {
      "anonymous": false,
      "inputs": [
        {
          "indexed": true,
          "internalType": "address",
          "name": "user",
          "type": "address"
        },
        {
          "indexed": false,
          "internalType": "uint256",
          "name": "amount",
          "type": "uint256"
        },
        {
          "indexed": false,
          "internalType": "uint256",
          "name": "index",
          "type": "uint256"
        },
        {
          "indexed": false,
          "internalType": "uint256",
          "name": "timestamp",
          "type": "uint256"
        }
      ],
      "name": "Staked",
      "type": "event"
    },
    {
      "anonymous": false,
      "inputs": [
        {
          "indexed": true,
          "internalType": "address",
          "name": "operator",
          "type": "address"
        },
        {
          "indexed": true,
          "internalType": "address",
          "name": "from",
          "type": "address"
        },
        {
          "indexed": true,
          "internalType": "address",
          "name": "to",
          "type": "address"
        },
        {
          "indexed": false,
          "internalType": "uint256[]",
          "name": "ids",
          "type": "uint256[]"
        },
        {
          "indexed": false,
          "internalType": "uint256[]",
          "name": "values",
          "type": "uint256[]"
        }
      ],
      "name": "TransferBatch",
      "type": "event"
    },
    {
      "anonymous": false,
      "inputs": [
        {
          "indexed": true,
          "internalType": "address",
          "name": "operator",
          "type": "address"
        },
        {
          "indexed": true,
          "internalType": "address",
          "name": "from",
          "type": "address"
        },
        {
          "indexed": true,
          "internalType": "address",
          "name": "to",
          "type": "address"
        },
        {
          "indexed": false,
          "internalType": "uint256",
          "name": "id",
          "type": "uint256"
        },
        {
          "indexed": false,
          "internalType": "uint256",
          "name": "value",
          "type": "uint256"
        }
      ],
      "name": "TransferSingle",
      "type": "event"
    },
    {
      "anonymous": false,
      "inputs": [
        {
          "indexed": false,
          "internalType": "string",
          "name": "value",
          "type": "string"
        },
        {
          "indexed": true,
          "internalType": "uint256",
          "name": "id",
          "type": "uint256"
        }
      ],
      "name": "URI",
      "type": "event"
    },
    {
      "anonymous": false,
      "inputs": [
        {
          "indexed": false,
          "internalType": "uint256",
          "name": "receiptId",
          "type": "uint256"
        },
        {
          "indexed": false,
          "internalType": "uint256",
          "name": "productId",
          "type": "uint256"
        },
        {
          "indexed": false,
          "internalType": "uint256",
          "name": "quantity",
          "type": "uint256"
        },
        {
          "indexed": false,
          "internalType": "uint256",
          "name": "totalCost",
          "type": "uint256"
        },
        {
          "indexed": false,
          "internalType": "address",
          "name": "buyer",
          "type": "address"
        },
        {
          "indexed": false,
          "internalType": "address",
          "name": "seller",
          "type": "address"
        }
      ],
      "name": "newOrder",
      "type": "event"
    },
    {
      "anonymous": false,
      "inputs": [
        {
          "indexed": false,
          "internalType": "uint256",
          "name": "productId",
          "type": "uint256"
        },
        {
          "indexed": false,
          "internalType": "string",
          "name": "name",
          "type": "string"
        },
        {
          "indexed": false,
          "internalType": "uint256",
          "name": "price",
          "type": "uint256"
        },
        {
          "indexed": false,
          "internalType": "uint256",
          "name": "quantity",
          "type": "uint256"
        },
        {
          "indexed": false,
          "internalType": "address",
          "name": "seller",
          "type": "address"
        }
      ],
      "name": "newProduct",
      "type": "event"
    },
    {
      "inputs": [],
      "name": "Admin",
      "outputs": [
        {
          "internalType": "address payable",
          "name": "",
          "type": "address"
        }
      ],
      "stateMutability": "view",
      "type": "function"
    },
    {
      "inputs": [],
      "name": "Owner",
      "outputs": [
        {
          "internalType": "address payable",
          "name": "",
          "type": "address"
        }
      ],
      "stateMutability": "view",
      "type": "function"
    },
    {
      "inputs": [
        {
          "internalType": "uint256",
          "name": "",
          "type": "uint256"
        }
      ],
      "name": "Products",
      "outputs": [
        {
          "internalType": "string",
          "name": "name",
          "type": "string"
        },
        {
          "internalType": "uint256",
          "name": "price",
          "type": "uint256"
        },
        {
          "internalType": "uint256",
          "name": "quantity",
          "type": "uint256"
        },
        {
          "internalType": "address payable",
          "name": "seller",
          "type": "address"
        }
      ],
      "stateMutability": "view",
      "type": "function"
    },
    {
      "inputs": [
        {
          "internalType": "uint256",
          "name": "",
          "type": "uint256"
        }
      ],
      "name": "Receipts",
      "outputs": [
        {
          "internalType": "uint256",
          "name": "productId",
          "type": "uint256"
        },
        {
          "internalType": "uint256",
          "name": "quantity",
          "type": "uint256"
        },
        {
          "internalType": "uint256",
          "name": "totalCost",
          "type": "uint256"
        },
        {
          "internalType": "address payable",
          "name": "buyer",
          "type": "address"
        },
        {
          "internalType": "address payable",
          "name": "seller",
          "type": "address"
        }
      ],
      "stateMutability": "view",
      "type": "function"
    },
    {
      "inputs": [],
      "name": "Stake",
      "outputs": [],
      "stateMutability": "payable",
      "type": "function"
    },
    {
      "inputs": [
        {
          "internalType": "address",
          "name": "account",
          "type": "address"
        },
        {
          "internalType": "uint256",
          "name": "id",
          "type": "uint256"
        }
      ],
      "name": "balanceOf",
      "outputs": [
        {
          "internalType": "uint256",
          "name": "",
          "type": "uint256"
        }
      ],
      "stateMutability": "view",
      "type": "function"
    },
    {
      "inputs": [
        {
          "internalType": "address[]",
          "name": "accounts",
          "type": "address[]"
        },
        {
          "internalType": "uint256[]",
          "name": "ids",
          "type": "uint256[]"
        }
      ],
      "name": "balanceOfBatch",
      "outputs": [
        {
          "internalType": "uint256[]",
          "name": "",
          "type": "uint256[]"
        }
      ],
      "stateMutability": "view",
      "type": "function"
    },
    {
      "inputs": [
        {
          "internalType": "address",
          "name": "account",
          "type": "address"
        },
        {
          "internalType": "uint256",
          "name": "id",
          "type": "uint256"
        },
        {
          "internalType": "uint256",
          "name": "amount",
          "type": "uint256"
        }
      ],
      "name": "burnNFT",
      "outputs": [],
      "stateMutability": "nonpayable",
      "type": "function"
    },
    {
      "inputs": [],
      "name": "buyerReceipt",
      "outputs": [
        {
          "internalType": "uint256",
          "name": "",
          "type": "uint256"
        }
      ],
      "stateMutability": "view",
      "type": "function"
    },
    {
      "inputs": [
        {
          "internalType": "address",
          "name": "account",
          "type": "address"
        },
        {
          "internalType": "address",
          "name": "operator",
          "type": "address"
        }
      ],
      "name": "isApprovedForAll",
      "outputs": [
        {
          "internalType": "bool",
          "name": "",
          "type": "bool"
        }
      ],
      "stateMutability": "view",
      "type": "function"
    },
    {
      "inputs": [
        {
          "internalType": "address",
          "name": "account",
          "type": "address"
        },
        {
          "internalType": "bytes",
          "name": "description",
          "type": "bytes"
        }
      ],
      "name": "mintNFT",
      "outputs": [],
      "stateMutability": "nonpayable",
      "type": "function"
    },
    {
      "inputs": [],
      "name": "productId",
      "outputs": [
        {
          "internalType": "uint256",
          "name": "",
          "type": "uint256"
        }
      ],
      "stateMutability": "view",
      "type": "function"
    },
    {
      "inputs": [],
      "name": "receiptId",
      "outputs": [
        {
          "internalType": "uint256",
          "name": "",
          "type": "uint256"
        }
      ],
      "stateMutability": "view",
      "type": "function"
    },
    {
      "inputs": [
        {
          "internalType": "address",
          "name": "from",
          "type": "address"
        },
        {
          "internalType": "address",
          "name": "to",
          "type": "address"
        },
        {
          "internalType": "uint256[]",
          "name": "ids",
          "type": "uint256[]"
        },
        {
          "internalType": "uint256[]",
          "name": "amounts",
          "type": "uint256[]"
        },
        {
          "internalType": "bytes",
          "name": "data",
          "type": "bytes"
        }
      ],
      "name": "safeBatchTransferFrom",
      "outputs": [],
      "stateMutability": "nonpayable",
      "type": "function"
    },
    {
      "inputs": [
        {
          "internalType": "address",
          "name": "from",
          "type": "address"
        },
        {
          "internalType": "address",
          "name": "to",
          "type": "address"
        },
        {
          "internalType": "uint256",
          "name": "id",
          "type": "uint256"
        },
        {
          "internalType": "uint256",
          "name": "amount",
          "type": "uint256"
        },
        {
          "internalType": "bytes",
          "name": "data",
          "type": "bytes"
        }
      ],
      "name": "safeTransferFrom",
      "outputs": [],
      "stateMutability": "nonpayable",
      "type": "function"
    },
    {
      "inputs": [],
      "name": "sellerReceipt",
      "outputs": [
        {
          "internalType": "uint256",
          "name": "",
          "type": "uint256"
        }
      ],
      "stateMutability": "view",
      "type": "function"
    },
    {
      "inputs": [
        {
          "internalType": "address",
          "name": "operator",
          "type": "address"
        },
        {
          "internalType": "bool",
          "name": "approved",
          "type": "bool"
        }
      ],
      "name": "setApprovalForAll",
      "outputs": [],
      "stateMutability": "nonpayable",
      "type": "function"
    },
    {
      "inputs": [
        {
          "internalType": "bytes4",
          "name": "interfaceId",
          "type": "bytes4"
        }
      ],
      "name": "supportsInterface",
      "outputs": [
        {
          "internalType": "bool",
          "name": "",
          "type": "bool"
        }
      ],
      "stateMutability": "view",
      "type": "function"
    },
    {
      "inputs": [
        {
          "internalType": "uint256",
          "name": "",
          "type": "uint256"
        }
      ],
      "name": "uri",
      "outputs": [
        {
          "internalType": "string",
          "name": "",
          "type": "string"
        }
      ],
      "stateMutability": "view",
      "type": "function"
    },
    {
      "inputs": [
        {
          "internalType": "string",
          "name": "_name",
          "type": "string"
        },
        {
          "internalType": "uint256",
          "name": "_price",
          "type": "uint256"
        },
        {
          "internalType": "uint256",
          "name": "_quantity",
          "type": "uint256"
        }
      ],
      "name": "listItem",
      "outputs": [],
      "stateMutability": "nonpayable",
      "type": "function"
    },
    {
      "inputs": [
        {
          "internalType": "uint256",
          "name": "_productId",
          "type": "uint256"
        },
        {
          "internalType": "uint256",
          "name": "_quantity",
          "type": "uint256"
        }
      ],
      "name": "buy",
      "outputs": [],
      "stateMutability": "payable",
      "type": "function"
    },
    {
      "inputs": [
        {
          "internalType": "uint256",
          "name": "_receiptId",
          "type": "uint256"
        }
      ],
      "name": "orderAccept",
      "outputs": [],
      "stateMutability": "payable",
      "type": "function"
    },
    {
      "inputs": [
        {
          "internalType": "uint256",
          "name": "_receiptId",
          "type": "uint256"
        }
      ],
      "name": "orderReject",
      "outputs": [],
      "stateMutability": "payable",
      "type": "function"
    },
    {
      "inputs": [
        {
          "internalType": "uint256",
          "name": "_receiptId",
          "type": "uint256"
        }
      ],
      "name": "itemDelivered",
      "outputs": [],
      "stateMutability": "nonpayable",
      "type": "function"
    },
    {
      "inputs": [
        {
          "internalType": "uint256",
          "name": "_receiptId",
          "type": "uint256"
        }
      ],
      "name": "dispute",
      "outputs": [],
      "stateMutability": "payable",
      "type": "function"
    },
    {
      "inputs": [
        {
          "internalType": "uint256",
          "name": "_receiptId",
          "type": "uint256"
        },
        {
          "internalType": "address payable",
          "name": "_justice",
          "type": "address"
        }
      ],
      "name": "resolve",
      "outputs": [],
      "stateMutability": "payable",
      "type": "function"
    }
  ],
  "bytecode": "0x608060405261dead600460006101000a81548173ffffffffffffffffffffffffffffffffffffffff021916908373ffffffffffffffffffffffffffffffffffffffff16021790555061dead600d60006101000a81548173ffffffffffffffffffffffffffffffffffffffff021916908373ffffffffffffffffffffffffffffffffffffffff1602179055503480156200009757600080fd5b506040518060600160405280602e815260200162005b7e602e9139620000c3816200052f60201b60201c565b5060066040518060600160405280600460009054906101000a900473ffffffffffffffffffffffffffffffffffffffff1673ffffffffffffffffffffffffffffffffffffffff1681526020016000815260200142815250908060018154018082558091505060019003906000526020600020906003020160009091909190915060008201518160000160006101000a81548173ffffffffffffffffffffffffffffffffffffffff021916908373ffffffffffffffffffffffffffffffffffffffff1602179055506020820151816001015560408201518160020155505033600560006101000a81548173ffffffffffffffffffffffffffffffffffffffff021916908373ffffffffffffffffffffffffffffffffffffffff16021790555033600860006101000a81548173ffffffffffffffffffffffffffffffffffffffff021916908373ffffffffffffffffffffffffffffffffffffffff160217905550600e6040518060a00160405280600081526020016000815260200160008152602001600d60009054906101000a900473ffffffffffffffffffffffffffffffffffffffff1673ffffffffffffffffffffffffffffffffffffffff168152602001600d60009054906101000a900473ffffffffffffffffffffffffffffffffffffffff1673ffffffffffffffffffffffffffffffffffffffff16815250908060018154018082558091505060019003906000526020600020906005020160009091909190915060008201518160000155602082015181600101556040820151816002015560608201518160030160006101000a81548173ffffffffffffffffffffffffffffffffffffffff021916908373ffffffffffffffffffffffffffffffffffffffff16021790555060808201518160040160006101000a81548173ffffffffffffffffffffffffffffffffffffffff021916908373ffffffffffffffffffffffffffffffffffffffff1602179055505050600f604051806080016040528060098054620003b190620005fb565b80601f0160208091040260200160405190810160405280929190818152602001828054620003df90620005fb565b8015620004305780601f10620004045761010080835404028352916020019162000430565b820191906000526020600020905b8154815290600101906020018083116200041257829003601f168201915b505050505081526020016000815260200160008152602001600d60009054906101000a900473ffffffffffffffffffffffffffffffffffffffff1673ffffffffffffffffffffffffffffffffffffffff1681525090806001815401808255809150506001900390600052602060002090600402016000909190919091506000820151816000019080519060200190620004cb9291906200054b565b50602082015181600101556040820151816002015560608201518160030160006101000a81548173ffffffffffffffffffffffffffffffffffffffff021916908373ffffffffffffffffffffffffffffffffffffffff160217905550505062000660565b8060029080519060200190620005479291906200054b565b5050565b8280546200055990620005fb565b90600052602060002090601f0160209004810192826200057d5760008555620005c9565b82601f106200059857805160ff1916838001178555620005c9565b82800160010185558215620005c9579182015b82811115620005c8578251825591602001919060010190620005ab565b5b509050620005d89190620005dc565b5090565b5b80821115620005f7576000816000905550600101620005dd565b5090565b600060028204905060018216806200061457607f821691505b602082108114156200062b576200062a62000631565b5b50919050565b7f4e487b7100000000000000000000000000000000000000000000000000000000600052602260045260246000fd5b61550e80620006706000396000f3fe6080604052600436106101805760003560e01c8063a22cb465116100d1578063dba3f6aa1161008a578063e985e9c511610064578063e985e9c514610534578063f176627914610571578063f242432a1461059a578063ff1b636d146105c357610180565b8063dba3f6aa146104c1578063de20bc9214610501578063e83b02271461050b57610180565b8063a22cb465146103e1578063af0d467b1461040a578063b4a99a4e14610426578063c5ce391114610451578063cef4c9b41461047c578063d6febde8146104a557610180565b80631cc509fd1161013e578063667aa60611610118578063667aa6061461033d57806371b1b9971461035957806381fca9991461039a57806386d6282c146103c557610180565b80631cc509fd146102ae5780632eb2c2d6146102d75780634e1273f41461030057610180565b8062fdd58e1461018557806301ffc9a7146101c2578063044fbeac146101ff5780630e89341c1461022a5780631352c70b146102675780631775ec8414610283575b600080fd5b34801561019157600080fd5b506101ac60048036038101906101a79190613b20565b6105ee565b6040516101b99190614737565b60405180910390f35b3480156101ce57600080fd5b506101e960048036038101906101e49190613c17565b6106b7565b6040516101f691906143ee565b60405180910390f35b34801561020b57600080fd5b50610214610799565b6040516102219190614737565b60405180910390f35b34801561023657600080fd5b50610251600480360381019061024c9190613cd5565b61079e565b60405161025e9190614409565b60405180910390f35b610281600480360381019061027c9190613cd5565b610832565b005b34801561028f57600080fd5b50610298610a5e565b6040516102a59190614737565b60405180910390f35b3480156102ba57600080fd5b506102d560048036038101906102d09190613b5c565b610a64565b005b3480156102e357600080fd5b506102fe60048036038101906102f99190613942565b610aac565b005b34801561030c57600080fd5b5061032760048036038101906103229190613bab565b610b4d565b6040516103349190614395565b60405180910390f35b61035760048036038101906103529190613cd5565b610cfe565b005b34801561036557600080fd5b50610380600480360381019061037b9190613cd5565b610e2d565b60405161039195949392919061480e565b60405180910390f35b3480156103a657600080fd5b506103af610eb3565b6040516103bc9190614737565b60405180910390f35b6103df60048036038101906103da9190613cd5565b610eb8565b005b3480156103ed57600080fd5b5061040860048036038101906104039190613a90565b611050565b005b610424600480360381019061041f9190613cfe565b6111d1565b005b34801561043257600080fd5b5061043b611532565b60405161044891906142b8565b60405180910390f35b34801561045d57600080fd5b50610466611558565b6040516104739190614737565b60405180910390f35b34801561048857600080fd5b506104a3600480360381019061049e9190613cd5565b61155e565b005b6104bf60048036038101906104ba9190613d3a565b6119a9565b005b3480156104cd57600080fd5b506104e860048036038101906104e39190613cd5565b611ff6565b6040516104f8949392919061442b565b60405180910390f35b6105096120de565b005b34801561051757600080fd5b50610532600480360381019061052d9190613acc565b612386565b005b34801561054057600080fd5b5061055b60048036038101906105569190613906565b612398565b60405161056891906143ee565b60405180910390f35b34801561057d57600080fd5b5061059860048036038101906105939190613c69565b61242c565b005b3480156105a657600080fd5b506105c160048036038101906105bc9190613a01565b61268a565b005b3480156105cf57600080fd5b506105d861272b565b6040516105e591906142b8565b60405180910390f35b60008073ffffffffffffffffffffffffffffffffffffffff168373ffffffffffffffffffffffffffffffffffffffff16141561065f576040517f08c379a000000000000000000000000000000000000000000000000000000000815260040161065690614517565b60405180910390fd5b60008083815260200190815260200160002060008473ffffffffffffffffffffffffffffffffffffffff1673ffffffffffffffffffffffffffffffffffffffff16815260200190815260200160002054905092915050565b60007fd9b67a26000000000000000000000000000000000000000000000000000000007bffffffffffffffffffffffffffffffffffffffffffffffffffffffff1916827bffffffffffffffffffffffffffffffffffffffffffffffffffffffff1916148061078257507f0e89341c000000000000000000000000000000000000000000000000000000007bffffffffffffffffffffffffffffffffffffffffffffffffffffffff1916827bffffffffffffffffffffffffffffffffffffffffffffffffffffffff1916145b80610792575061079182612751565b5b9050919050565b600081565b6060600280546107ad90614bc3565b80601f01602080910402602001604051908101604052809291908181526020018280546107d990614bc3565b80156108265780601f106107fb57610100808354040283529160200191610826565b820191906000526020600020905b81548152906001019060200180831161080957829003601f168201915b50505050509050919050565b803373ffffffffffffffffffffffffffffffffffffffff16600e8281548110610884577f4e487b7100000000000000000000000000000000000000000000000000000000600052603260045260246000fd5b906000526020600020906005020160040160009054906101000a900473ffffffffffffffffffffffffffffffffffffffff1673ffffffffffffffffffffffffffffffffffffffff161461090c576040517f08c379a0000000000000000000000000000000000000000000000000000000008152600401610903906144f7565b60405180910390fd5b6001600a60006101000a81548160ff02191690836004811115610958577f4e487b7100000000000000000000000000000000000000000000000000000000600052602160045260246000fd5b0217905550600e8281548110610997577f4e487b7100000000000000000000000000000000000000000000000000000000600052603260045260246000fd5b906000526020600020906005020160030160009054906101000a900473ffffffffffffffffffffffffffffffffffffffff1673ffffffffffffffffffffffffffffffffffffffff166108fc600e8481548110610a1c577f4e487b7100000000000000000000000000000000000000000000000000000000600052603260045260246000fd5b9060005260206000209060050201600201549081150290604051600060405180830381858888f19350505050158015610a59573d6000803e3d6000fd5b505050565b600b5481565b8273ffffffffffffffffffffffffffffffffffffffff163373ffffffffffffffffffffffffffffffffffffffff1614610a9c57600080fd5b610aa78383836127bb565b505050565b610ab46129d8565b73ffffffffffffffffffffffffffffffffffffffff168573ffffffffffffffffffffffffffffffffffffffff161480610afa5750610af985610af46129d8565b612398565b5b610b39576040517f08c379a0000000000000000000000000000000000000000000000000000000008152600401610b30906145f7565b60405180910390fd5b610b4685858585856129e0565b5050505050565b60608151835114610b93576040517f08c379a0000000000000000000000000000000000000000000000000000000008152600401610b8a906146b7565b60405180910390fd5b6000835167ffffffffffffffff811115610bd6577f4e487b7100000000000000000000000000000000000000000000000000000000600052604160045260246000fd5b604051908082528060200260200182016040528015610c045781602001602082028036833780820191505090505b50905060005b8451811015610cf357610c9d858281518110610c4f577f4e487b7100000000000000000000000000000000000000000000000000000000600052603260045260246000fd5b6020026020010151858381518110610c90577f4e487b7100000000000000000000000000000000000000000000000000000000600052603260045260246000fd5b60200260200101516105ee565b828281518110610cd6577f4e487b7100000000000000000000000000000000000000000000000000000000600052603260045260246000fd5b60200260200101818152505080610cec90614c26565b9050610c0a565b508091505092915050565b803373ffffffffffffffffffffffffffffffffffffffff16600e8281548110610d50577f4e487b7100000000000000000000000000000000000000000000000000000000600052603260045260246000fd5b906000526020600020906005020160040160009054906101000a900473ffffffffffffffffffffffffffffffffffffffff1673ffffffffffffffffffffffffffffffffffffffff1614610dd8576040517f08c379a0000000000000000000000000000000000000000000000000000000008152600401610dcf906144f7565b60405180910390fd5b6002600a60006101000a81548160ff02191690836004811115610e24577f4e487b7100000000000000000000000000000000000000000000000000000000600052602160045260246000fd5b02179055505050565b600e8181548110610e3d57600080fd5b90600052602060002090600502016000915090508060000154908060010154908060020154908060030160009054906101000a900473ffffffffffffffffffffffffffffffffffffffff16908060040160009054906101000a900473ffffffffffffffffffffffffffffffffffffffff16905085565b600181565b600e8181548110610ef2577f4e487b7100000000000000000000000000000000000000000000000000000000600052603260045260246000fd5b906000526020600020906005020160030160009054906101000a900473ffffffffffffffffffffffffffffffffffffffff1673ffffffffffffffffffffffffffffffffffffffff163373ffffffffffffffffffffffffffffffffffffffff161480610ff35750600e8181548110610f92577f4e487b7100000000000000000000000000000000000000000000000000000000600052603260045260246000fd5b906000526020600020906005020160040160009054906101000a900473ffffffffffffffffffffffffffffffffffffffff1673ffffffffffffffffffffffffffffffffffffffff163373ffffffffffffffffffffffffffffffffffffffff16145b610ffc57600080fd5b6004600a60006101000a81548160ff02191690836004811115611048577f4e487b7100000000000000000000000000000000000000000000000000000000600052602160045260246000fd5b021790555050565b8173ffffffffffffffffffffffffffffffffffffffff1661106f6129d8565b73ffffffffffffffffffffffffffffffffffffffff1614156110c6576040517f08c379a00000000000000000000000000000000000000000000000000000000081526004016110bd90614697565b60405180910390fd5b80600160006110d36129d8565b73ffffffffffffffffffffffffffffffffffffffff1673ffffffffffffffffffffffffffffffffffffffff16815260200190815260200160002060008473ffffffffffffffffffffffffffffffffffffffff1673ffffffffffffffffffffffffffffffffffffffff16815260200190815260200160002060006101000a81548160ff0219169083151502179055508173ffffffffffffffffffffffffffffffffffffffff166111806129d8565b73ffffffffffffffffffffffffffffffffffffffff167f17307eab39ab6107e8899845ad3d59bd9653f200f220920489ca2b5937696c31836040516111c591906143ee565b60405180910390a35050565b600860009054906101000a900473ffffffffffffffffffffffffffffffffffffffff1673ffffffffffffffffffffffffffffffffffffffff163373ffffffffffffffffffffffffffffffffffffffff1614611261576040517f08c379a000000000000000000000000000000000000000000000000000000000815260040161125890614597565b60405180910390fd5b600e828154811061129b577f4e487b7100000000000000000000000000000000000000000000000000000000600052603260045260246000fd5b906000526020600020906005020160030160009054906101000a900473ffffffffffffffffffffffffffffffffffffffff1673ffffffffffffffffffffffffffffffffffffffff168173ffffffffffffffffffffffffffffffffffffffff16148061139c5750600e828154811061133b577f4e487b7100000000000000000000000000000000000000000000000000000000600052603260045260246000fd5b906000526020600020906005020160040160009054906101000a900473ffffffffffffffffffffffffffffffffffffffff1673ffffffffffffffffffffffffffffffffffffffff168173ffffffffffffffffffffffffffffffffffffffff16145b6113db576040517f08c379a00000000000000000000000000000000000000000000000000000000081526004016113d2906144d7565b60405180910390fd5b600480811115611414577f4e487b7100000000000000000000000000000000000000000000000000000000600052602160045260246000fd5b600a60009054906101000a900460ff16600481111561145c577f4e487b7100000000000000000000000000000000000000000000000000000000600052602160045260246000fd5b1461149c576040517f08c379a000000000000000000000000000000000000000000000000000000000815260040161149390614577565b60405180910390fd5b8073ffffffffffffffffffffffffffffffffffffffff166108fc600e84815481106114f0577f4e487b7100000000000000000000000000000000000000000000000000000000600052603260045260246000fd5b9060005260206000209060050201600201549081150290604051600060405180830381858888f1935050505015801561152d573d6000803e3d6000fd5b505050565b600860009054906101000a900473ffffffffffffffffffffffffffffffffffffffff1681565b600c5481565b803373ffffffffffffffffffffffffffffffffffffffff16600e82815481106115b0577f4e487b7100000000000000000000000000000000000000000000000000000000600052603260045260246000fd5b906000526020600020906005020160030160009054906101000a900473ffffffffffffffffffffffffffffffffffffffff1673ffffffffffffffffffffffffffffffffffffffff1614611638576040517f08c379a000000000000000000000000000000000000000000000000000000000815260040161162f90614677565b60405180910390fd5b600e8281548110611672577f4e487b7100000000000000000000000000000000000000000000000000000000600052603260045260246000fd5b906000526020600020906005020160040160009054906101000a900473ffffffffffffffffffffffffffffffffffffffff1673ffffffffffffffffffffffffffffffffffffffff166108fc600e84815481106116f7577f4e487b7100000000000000000000000000000000000000000000000000000000600052603260045260246000fd5b9060005260206000209060050201600201549081150290604051600060405180830381858888f19350505050158015611734573d6000803e3d6000fd5b506000428344600e8681548110611774577f4e487b7100000000000000000000000000000000000000000000000000000000600052603260045260246000fd5b906000526020600020906005020160000154600e87815481106117c0577f4e487b7100000000000000000000000000000000000000000000000000000000600052603260045260246000fd5b906000526020600020906005020160010154600e888154811061180c577f4e487b7100000000000000000000000000000000000000000000000000000000600052603260045260246000fd5b906000526020600020906005020160020154600e8981548110611858577f4e487b7100000000000000000000000000000000000000000000000000000000600052603260045260246000fd5b906000526020600020906005020160030160009054906101000a900473ffffffffffffffffffffffffffffffffffffffff16600e8a815481106118c4577f4e487b7100000000000000000000000000000000000000000000000000000000600052603260045260246000fd5b906000526020600020906005020160040160009054906101000a900473ffffffffffffffffffffffffffffffffffffffff16600e8054905060405160200161191499989796959493929190614215565b604051602081830303815290604052905061192f3382612386565b6119a4600e848154811061196c577f4e487b7100000000000000000000000000000000000000000000000000000000600052603260045260246000fd5b906000526020600020906005020160040160009054906101000a900473ffffffffffffffffffffffffffffffffffffffff1682612386565b505050565b81600f81815481106119e4577f4e487b7100000000000000000000000000000000000000000000000000000000600052603260045260246000fd5b906000526020600020906004020160030160009054906101000a900473ffffffffffffffffffffffffffffffffffffffff1673ffffffffffffffffffffffffffffffffffffffff163373ffffffffffffffffffffffffffffffffffffffff161415611a84576040517f08c379a0000000000000000000000000000000000000000000000000000000008152600401611a7b90614617565b60405180910390fd5b600f8381548110611abe577f4e487b7100000000000000000000000000000000000000000000000000000000600052603260045260246000fd5b906000526020600020906004020160010154828082611add9190614a37565b3414611b1e576040517f08c379a0000000000000000000000000000000000000000000000000000000008152600401611b1590614497565b60405180910390fd5b6000600760003373ffffffffffffffffffffffffffffffffffffffff1673ffffffffffffffffffffffffffffffffffffffff168152602001908152602001600020541415611ba1576040517f08c379a0000000000000000000000000000000000000000000000000000000008152600401611b9890614717565b60405180910390fd5b60006001811115611bdb577f4e487b7100000000000000000000000000000000000000000000000000000000600052602160045260246000fd5b600860149054906101000a900460ff166001811115611c23577f4e487b7100000000000000000000000000000000000000000000000000000000600052602160045260246000fd5b14611c2d57600080fd5b83600f8681548110611c68577f4e487b7100000000000000000000000000000000000000000000000000000000600052603260045260246000fd5b90600052602060002090600402016002016000828254611c889190614a91565b925050819055506000600a60006101000a81548160ff02191690836004811115611cdb577f4e487b7100000000000000000000000000000000000000000000000000000000600052602160045260246000fd5b0217905550600084600f8781548110611d1d577f4e487b7100000000000000000000000000000000000000000000000000000000600052603260045260246000fd5b906000526020600020906004020160010154611d399190614a37565b9050600b6000815480929190611d4e90614c26565b9190505550600e6040518060a001604052808881526020018781526020018381526020013373ffffffffffffffffffffffffffffffffffffffff168152602001600f8981548110611dc8577f4e487b7100000000000000000000000000000000000000000000000000000000600052603260045260246000fd5b906000526020600020906004020160030160009054906101000a900473ffffffffffffffffffffffffffffffffffffffff1673ffffffffffffffffffffffffffffffffffffffff16815250908060018154018082558091505060019003906000526020600020906005020160009091909190915060008201518160000155602082015181600101556040820151816002015560608201518160030160006101000a81548173ffffffffffffffffffffffffffffffffffffffff021916908373ffffffffffffffffffffffffffffffffffffffff16021790555060808201518160040160006101000a81548173ffffffffffffffffffffffffffffffffffffffff021916908373ffffffffffffffffffffffffffffffffffffffff16021790555050507fc64d33f374321e1b83fae29f825885f9a615007c6cb350128682cfcdcd5633a7600b54878788600f8b81548110611f4b577f4e487b7100000000000000000000000000000000000000000000000000000000600052603260045260246000fd5b906000526020600020906004020160010154611f679190614a37565b33600f8c81548110611fa2577f4e487b7100000000000000000000000000000000000000000000000000000000600052603260045260246000fd5b906000526020600020906004020160030160009054906101000a900473ffffffffffffffffffffffffffffffffffffffff16604051611fe696959493929190614861565b60405180910390a1505050505050565b600f818154811061200657600080fd5b906000526020600020906004020160009150905080600001805461202990614bc3565b80601f016020809104026020016040519081016040528092919081815260200182805461205590614bc3565b80156120a25780601f10612077576101008083540402835291602001916120a2565b820191906000526020600020905b81548152906001019060200180831161208557829003601f168201915b5050505050908060010154908060020154908060030160009054906101000a900473ffffffffffffffffffffffffffffffffffffffff16905084565b66b1a2bc2ec50000341015612128576040517f08c379a000000000000000000000000000000000000000000000000000000000815260040161211f906145b7565b60405180910390fd5b6000600660405180606001604052803373ffffffffffffffffffffffffffffffffffffffff16815260200134815260200142815250908060018154018082558091505060019003906000526020600020906003020160009091909190915060008201518160000160006101000a81548173ffffffffffffffffffffffffffffffffffffffff021916908373ffffffffffffffffffffffffffffffffffffffff16021790555060208201518160010155604082015181600201555050600060016006805490506121f79190614a91565b90508160068281548110612234577f4e487b7100000000000000000000000000000000000000000000000000000000600052603260045260246000fd5b906000526020600020906003020160000160006101000a81548173ffffffffffffffffffffffffffffffffffffffff021916908373ffffffffffffffffffffffffffffffffffffffff16021790555080600760008473ffffffffffffffffffffffffffffffffffffffff1673ffffffffffffffffffffffffffffffffffffffff168152602001908152602001600020819055503373ffffffffffffffffffffffffffffffffffffffff167fb4caaf29adda3eefee3ad552a8e85058589bf834c7466cae4ee58787f70589ed348342604051612311939291906147d7565b60405180910390a2600560009054906101000a900473ffffffffffffffffffffffffffffffffffffffff1673ffffffffffffffffffffffffffffffffffffffff166108fc349081150290604051600060405180830381858888f19350505050158015612381573d6000803e3d6000fd5b505050565b612394826000600184612d40565b5050565b6000600160008473ffffffffffffffffffffffffffffffffffffffff1673ffffffffffffffffffffffffffffffffffffffff16815260200190815260200160002060008373ffffffffffffffffffffffffffffffffffffffff1673ffffffffffffffffffffffffffffffffffffffff16815260200190815260200160002060009054906101000a900460ff16905092915050565b6000600760003373ffffffffffffffffffffffffffffffffffffffff1673ffffffffffffffffffffffffffffffffffffffff1681526020019081526020016000205414156124af576040517f08c379a00000000000000000000000000000000000000000000000000000000081526004016124a690614717565b60405180910390fd5b600c60008154809291906124c290614c26565b9190505550600f604051806080016040528086868080601f016020809104026020016040519081016040528093929190818152602001838380828437600081840152601f19601f8201169050808301925050505050505081526020018481526020018381526020013373ffffffffffffffffffffffffffffffffffffffff1681525090806001815401808255809150506001900390600052602060002090600402016000909190919091506000820151816000019080519060200190612589929190613607565b50602082015181600101556040820151816002015560608201518160030160006101000a81548173ffffffffffffffffffffffffffffffffffffffff021916908373ffffffffffffffffffffffffffffffffffffffff160217905550505060018110612684576000600860146101000a81548160ff0219169083600181111561263b577f4e487b7100000000000000000000000000000000000000000000000000000000600052602160045260246000fd5b02179055507f9538f37f3415699a7230042f74b18769944d69aed4a9324d06ac063ba9b0a406600c54858585853360405161267b96959493929190614752565b60405180910390a15b50505050565b6126926129d8565b73ffffffffffffffffffffffffffffffffffffffff168573ffffffffffffffffffffffffffffffffffffffff1614806126d857506126d7856126d26129d8565b612398565b5b612717576040517f08c379a000000000000000000000000000000000000000000000000000000000815260040161270e90614557565b60405180910390fd5b6127248585858585612ed6565b5050505050565b600560009054906101000a900473ffffffffffffffffffffffffffffffffffffffff1681565b60007f01ffc9a7000000000000000000000000000000000000000000000000000000007bffffffffffffffffffffffffffffffffffffffffffffffffffffffff1916827bffffffffffffffffffffffffffffffffffffffffffffffffffffffff1916149050919050565b600073ffffffffffffffffffffffffffffffffffffffff168373ffffffffffffffffffffffffffffffffffffffff16141561282b576040517f08c379a000000000000000000000000000000000000000000000000000000000815260040161282290614637565b60405180910390fd5b60006128356129d8565b90506128658185600061284787613158565b61285087613158565b6040518060200160405280600081525061321e565b600080600085815260200190815260200160002060008673ffffffffffffffffffffffffffffffffffffffff1673ffffffffffffffffffffffffffffffffffffffff168152602001908152602001600020549050828110156128fc576040517f08c379a00000000000000000000000000000000000000000000000000000000081526004016128f390614537565b60405180910390fd5b82810360008086815260200190815260200160002060008773ffffffffffffffffffffffffffffffffffffffff1673ffffffffffffffffffffffffffffffffffffffff16815260200190815260200160002081905550600073ffffffffffffffffffffffffffffffffffffffff168573ffffffffffffffffffffffffffffffffffffffff168373ffffffffffffffffffffffffffffffffffffffff167fc3d58168c5ae7397731d063d5bbf3d657854427343f4c083240f7aacaa2d0f6287876040516129c99291906147ae565b60405180910390a45050505050565b600033905090565b8151835114612a24576040517f08c379a0000000000000000000000000000000000000000000000000000000008152600401612a1b906146d7565b60405180910390fd5b600073ffffffffffffffffffffffffffffffffffffffff168473ffffffffffffffffffffffffffffffffffffffff161415612a94576040517f08c379a0000000000000000000000000000000000000000000000000000000008152600401612a8b906145d7565b60405180910390fd5b6000612a9e6129d8565b9050612aae81878787878761321e565b60005b8451811015612cab576000858281518110612af5577f4e487b7100000000000000000000000000000000000000000000000000000000600052603260045260246000fd5b602002602001015190506000858381518110612b3a577f4e487b7100000000000000000000000000000000000000000000000000000000600052603260045260246000fd5b60200260200101519050600080600084815260200190815260200160002060008b73ffffffffffffffffffffffffffffffffffffffff1673ffffffffffffffffffffffffffffffffffffffff16815260200190815260200160002054905081811015612bdb576040517f08c379a0000000000000000000000000000000000000000000000000000000008152600401612bd290614657565b60405180910390fd5b81810360008085815260200190815260200160002060008c73ffffffffffffffffffffffffffffffffffffffff1673ffffffffffffffffffffffffffffffffffffffff168152602001908152602001600020819055508160008085815260200190815260200160002060008b73ffffffffffffffffffffffffffffffffffffffff1673ffffffffffffffffffffffffffffffffffffffff1681526020019081526020016000206000828254612c9091906149e1565b9250508190555050505080612ca490614c26565b9050612ab1565b508473ffffffffffffffffffffffffffffffffffffffff168673ffffffffffffffffffffffffffffffffffffffff168273ffffffffffffffffffffffffffffffffffffffff167f4a39dc06d4c0dbc64b70af90fd698a233a518aa5d07e595d983b8c0526c8f7fb8787604051612d229291906143b7565b60405180910390a4612d38818787878787613226565b505050505050565b600073ffffffffffffffffffffffffffffffffffffffff168473ffffffffffffffffffffffffffffffffffffffff161415612db0576040517f08c379a0000000000000000000000000000000000000000000000000000000008152600401612da7906146f7565b60405180910390fd5b6000612dba6129d8565b9050612ddb81600087612dcc88613158565b612dd588613158565b8761321e565b8260008086815260200190815260200160002060008773ffffffffffffffffffffffffffffffffffffffff1673ffffffffffffffffffffffffffffffffffffffff1681526020019081526020016000206000828254612e3a91906149e1565b925050819055508473ffffffffffffffffffffffffffffffffffffffff16600073ffffffffffffffffffffffffffffffffffffffff168273ffffffffffffffffffffffffffffffffffffffff167fc3d58168c5ae7397731d063d5bbf3d657854427343f4c083240f7aacaa2d0f628787604051612eb89291906147ae565b60405180910390a4612ecf8160008787878761340d565b5050505050565b600073ffffffffffffffffffffffffffffffffffffffff168473ffffffffffffffffffffffffffffffffffffffff161415612f46576040517f08c379a0000000000000000000000000000000000000000000000000000000008152600401612f3d906145d7565b60405180910390fd5b6000612f506129d8565b9050612f70818787612f6188613158565b612f6a88613158565b8761321e565b600080600086815260200190815260200160002060008873ffffffffffffffffffffffffffffffffffffffff1673ffffffffffffffffffffffffffffffffffffffff16815260200190815260200160002054905083811015613007576040517f08c379a0000000000000000000000000000000000000000000000000000000008152600401612ffe90614657565b60405180910390fd5b83810360008087815260200190815260200160002060008973ffffffffffffffffffffffffffffffffffffffff1673ffffffffffffffffffffffffffffffffffffffff168152602001908152602001600020819055508360008087815260200190815260200160002060008873ffffffffffffffffffffffffffffffffffffffff1673ffffffffffffffffffffffffffffffffffffffff16815260200190815260200160002060008282546130bc91906149e1565b925050819055508573ffffffffffffffffffffffffffffffffffffffff168773ffffffffffffffffffffffffffffffffffffffff168373ffffffffffffffffffffffffffffffffffffffff167fc3d58168c5ae7397731d063d5bbf3d657854427343f4c083240f7aacaa2d0f6288886040516131399291906147ae565b60405180910390a461314f82888888888861340d565b50505050505050565b60606000600167ffffffffffffffff81111561319d577f4e487b7100000000000000000000000000000000000000000000000000000000600052604160045260246000fd5b6040519080825280602002602001820160405280156131cb5781602001602082028036833780820191505090505b5090508281600081518110613209577f4e487b7100000000000000000000000000000000000000000000000000000000600052603260045260246000fd5b60200260200101818152505080915050919050565b505050505050565b6132458473ffffffffffffffffffffffffffffffffffffffff166135f4565b15613405578373ffffffffffffffffffffffffffffffffffffffff1663bc197c8187878686866040518663ffffffff1660e01b815260040161328b9594939291906142d3565b602060405180830381600087803b1580156132a557600080fd5b505af19250505080156132d657506040513d601f19601f820116820180604052508101906132d39190613c40565b60015b61337c576132e2614d2a565b806308c379a0141561333f57506132f76153cf565b806133025750613341565b806040517f08c379a00000000000000000000000000000000000000000000000000000000081526004016133369190614409565b60405180910390fd5b505b6040517f08c379a000000000000000000000000000000000000000000000000000000000815260040161337390614477565b60405180910390fd5b63bc197c8160e01b7bffffffffffffffffffffffffffffffffffffffffffffffffffffffff1916817bffffffffffffffffffffffffffffffffffffffffffffffffffffffff191614613403576040517f08c379a00000000000000000000000000000000000000000000000000000000081526004016133fa906144b7565b60405180910390fd5b505b505050505050565b61342c8473ffffffffffffffffffffffffffffffffffffffff166135f4565b156135ec578373ffffffffffffffffffffffffffffffffffffffff1663f23a6e6187878686866040518663ffffffff1660e01b815260040161347295949392919061433b565b602060405180830381600087803b15801561348c57600080fd5b505af19250505080156134bd57506040513d601f19601f820116820180604052508101906134ba9190613c40565b60015b613563576134c9614d2a565b806308c379a0141561352657506134de6153cf565b806134e95750613528565b806040517f08c379a000000000000000000000000000000000000000000000000000000000815260040161351d9190614409565b60405180910390fd5b505b6040517f08c379a000000000000000000000000000000000000000000000000000000000815260040161355a90614477565b60405180910390fd5b63f23a6e6160e01b7bffffffffffffffffffffffffffffffffffffffffffffffffffffffff1916817bffffffffffffffffffffffffffffffffffffffffffffffffffffffff1916146135ea576040517f08c379a00000000000000000000000000000000000000000000000000000000081526004016135e1906144b7565b60405180910390fd5b505b505050505050565b600080823b905060008111915050919050565b82805461361390614bc3565b90600052602060002090601f016020900481019282613635576000855561367c565b82601f1061364e57805160ff191683800117855561367c565b8280016001018555821561367c579182015b8281111561367b578251825591602001919060010190613660565b5b509050613689919061368d565b5090565b5b808211156136a657600081600090555060010161368e565b5090565b60006136bd6136b8846148e7565b6148c2565b905080838252602082019050828560208602820111156136dc57600080fd5b60005b8581101561370c57816136f288826137c0565b8452602084019350602083019250506001810190506136df565b5050509392505050565b600061372961372484614913565b6148c2565b9050808382526020820190508285602086028201111561374857600080fd5b60005b85811015613778578161375e88826138f1565b84526020840193506020830192505060018101905061374b565b5050509392505050565b60006137956137908461493f565b6148c2565b9050828152602081018484840111156137ad57600080fd5b6137b8848285614b81565b509392505050565b6000813590506137cf81615465565b92915050565b6000813590506137e48161547c565b92915050565b600082601f8301126137fb57600080fd5b813561380b8482602086016136aa565b91505092915050565b600082601f83011261382557600080fd5b8135613835848260208601613716565b91505092915050565b60008135905061384d81615493565b92915050565b600081359050613862816154aa565b92915050565b600081519050613877816154aa565b92915050565b600082601f83011261388e57600080fd5b813561389e848260208601613782565b91505092915050565b60008083601f8401126138b957600080fd5b8235905067ffffffffffffffff8111156138d257600080fd5b6020830191508360018202830111156138ea57600080fd5b9250929050565b600081359050613900816154c1565b92915050565b6000806040838503121561391957600080fd5b6000613927858286016137c0565b9250506020613938858286016137c0565b9150509250929050565b600080600080600060a0868803121561395a57600080fd5b6000613968888289016137c0565b9550506020613979888289016137c0565b945050604086013567ffffffffffffffff81111561399657600080fd5b6139a288828901613814565b935050606086013567ffffffffffffffff8111156139bf57600080fd5b6139cb88828901613814565b925050608086013567ffffffffffffffff8111156139e857600080fd5b6139f48882890161387d565b9150509295509295909350565b600080600080600060a08688031215613a1957600080fd5b6000613a27888289016137c0565b9550506020613a38888289016137c0565b9450506040613a49888289016138f1565b9350506060613a5a888289016138f1565b925050608086013567ffffffffffffffff811115613a7757600080fd5b613a838882890161387d565b9150509295509295909350565b60008060408385031215613aa357600080fd5b6000613ab1858286016137c0565b9250506020613ac28582860161383e565b9150509250929050565b60008060408385031215613adf57600080fd5b6000613aed858286016137c0565b925050602083013567ffffffffffffffff811115613b0a57600080fd5b613b168582860161387d565b9150509250929050565b60008060408385031215613b3357600080fd5b6000613b41858286016137c0565b9250506020613b52858286016138f1565b9150509250929050565b600080600060608486031215613b7157600080fd5b6000613b7f868287016137c0565b9350506020613b90868287016138f1565b9250506040613ba1868287016138f1565b9150509250925092565b60008060408385031215613bbe57600080fd5b600083013567ffffffffffffffff811115613bd857600080fd5b613be4858286016137ea565b925050602083013567ffffffffffffffff811115613c0157600080fd5b613c0d85828601613814565b9150509250929050565b600060208284031215613c2957600080fd5b6000613c3784828501613853565b91505092915050565b600060208284031215613c5257600080fd5b6000613c6084828501613868565b91505092915050565b60008060008060608587031215613c7f57600080fd5b600085013567ffffffffffffffff811115613c9957600080fd5b613ca5878288016138a7565b94509450506020613cb8878288016138f1565b9250506040613cc9878288016138f1565b91505092959194509250565b600060208284031215613ce757600080fd5b6000613cf5848285016138f1565b91505092915050565b60008060408385031215613d1157600080fd5b6000613d1f858286016138f1565b9250506020613d30858286016137d5565b9150509250929050565b60008060408385031215613d4d57600080fd5b6000613d5b858286016138f1565b9250506020613d6c858286016138f1565b9150509250929050565b6000613d8283836141e0565b60208301905092915050565b613d9781614b4b565b82525050565b613da681614ad7565b82525050565b613dbd613db882614ad7565b614c6f565b82525050565b613dcc81614ac5565b82525050565b6000613ddd82614980565b613de781856149ae565b9350613df283614970565b8060005b83811015613e23578151613e0a8882613d76565b9750613e15836149a1565b925050600181019050613df6565b5085935050505092915050565b613e3981614ae9565b82525050565b6000613e4a8261498b565b613e5481856149bf565b9350613e64818560208601614b90565b613e6d81614d4c565b840191505092915050565b6000613e8483856149d0565b9350613e91838584614b81565b613e9a83614d4c565b840190509392505050565b6000613eb082614996565b613eba81856149d0565b9350613eca818560208601614b90565b613ed381614d4c565b840191505092915050565b6000613eeb6034836149d0565b9150613ef682614d77565b604082019050919050565b6000613f0e601b836149d0565b9150613f1982614dc6565b602082019050919050565b6000613f316028836149d0565b9150613f3c82614def565b604082019050919050565b6000613f54602f836149d0565b9150613f5f82614e3e565b604082019050919050565b6000613f776028836149d0565b9150613f8282614e8d565b604082019050919050565b6000613f9a602b836149d0565b9150613fa582614edc565b604082019050919050565b6000613fbd6024836149d0565b9150613fc882614f2b565b604082019050919050565b6000613fe06029836149d0565b9150613feb82614f7a565b604082019050919050565b60006140036022836149d0565b915061400e82614fc9565b604082019050919050565b60006140266015836149d0565b915061403182615018565b602082019050919050565b6000614049602d836149d0565b915061405482615041565b604082019050919050565b600061406c6025836149d0565b915061407782615090565b604082019050919050565b600061408f6032836149d0565b915061409a826150df565b604082019050919050565b60006140b26012836149d0565b91506140bd8261512e565b602082019050919050565b60006140d56023836149d0565b91506140e082615157565b604082019050919050565b60006140f8602a836149d0565b9150614103826151a6565b604082019050919050565b600061411b6027836149d0565b9150614126826151f5565b604082019050919050565b600061413e6029836149d0565b915061414982615244565b604082019050919050565b60006141616029836149d0565b915061416c82615293565b604082019050919050565b60006141846028836149d0565b915061418f826152e2565b604082019050919050565b60006141a76021836149d0565b91506141b282615331565b604082019050919050565b60006141ca6024836149d0565b91506141d582615380565b604082019050919050565b6141e981614b41565b82525050565b6141f881614b41565b82525050565b61420f61420a82614b41565b614c93565b82525050565b6000614221828c6141fe565b602082019150614231828b6141fe565b602082019150614241828a6141fe565b60208201915061425182896141fe565b60208201915061426182886141fe565b60208201915061427182876141fe565b6020820191506142818286613dac565b6014820191506142918285613dac565b6014820191506142a182846141fe565b6020820191508190509a9950505050505050505050565b60006020820190506142cd6000830184613d9d565b92915050565b600060a0820190506142e86000830188613dc3565b6142f56020830187613dc3565b81810360408301526143078186613dd2565b9050818103606083015261431b8185613dd2565b9050818103608083015261432f8184613e3f565b90509695505050505050565b600060a0820190506143506000830188613dc3565b61435d6020830187613dc3565b61436a60408301866141ef565b61437760608301856141ef565b81810360808301526143898184613e3f565b90509695505050505050565b600060208201905081810360008301526143af8184613dd2565b905092915050565b600060408201905081810360008301526143d18185613dd2565b905081810360208301526143e58184613dd2565b90509392505050565b60006020820190506144036000830184613e30565b92915050565b600060208201905081810360008301526144238184613ea5565b905092915050565b600060808201905081810360008301526144458187613ea5565b905061445460208301866141ef565b61446160408301856141ef565b61446e6060830184613d9d565b95945050505050565b6000602082019050818103600083015261449081613ede565b9050919050565b600060208201905081810360008301526144b081613f01565b9050919050565b600060208201905081810360008301526144d081613f24565b9050919050565b600060208201905081810360008301526144f081613f47565b9050919050565b6000602082019050818103600083015261451081613f6a565b9050919050565b6000602082019050818103600083015261453081613f8d565b9050919050565b6000602082019050818103600083015261455081613fb0565b9050919050565b6000602082019050818103600083015261457081613fd3565b9050919050565b6000602082019050818103600083015261459081613ff6565b9050919050565b600060208201905081810360008301526145b081614019565b9050919050565b600060208201905081810360008301526145d08161403c565b9050919050565b600060208201905081810360008301526145f08161405f565b9050919050565b6000602082019050818103600083015261461081614082565b9050919050565b60006020820190508181036000830152614630816140a5565b9050919050565b60006020820190508181036000830152614650816140c8565b9050919050565b60006020820190508181036000830152614670816140eb565b9050919050565b600060208201905081810360008301526146908161410e565b9050919050565b600060208201905081810360008301526146b081614131565b9050919050565b600060208201905081810360008301526146d081614154565b9050919050565b600060208201905081810360008301526146f081614177565b9050919050565b600060208201905081810360008301526147108161419a565b9050919050565b60006020820190508181036000830152614730816141bd565b9050919050565b600060208201905061474c60008301846141ef565b92915050565b600060a08201905061476760008301896141ef565b818103602083015261477a818789613e78565b905061478960408301866141ef565b61479660608301856141ef565b6147a36080830184613dc3565b979650505050505050565b60006040820190506147c360008301856141ef565b6147d060208301846141ef565b9392505050565b60006060820190506147ec60008301866141ef565b6147f960208301856141ef565b61480660408301846141ef565b949350505050565b600060a08201905061482360008301886141ef565b61483060208301876141ef565b61483d60408301866141ef565b61484a6060830185613d9d565b6148576080830184613d9d565b9695505050505050565b600060c08201905061487660008301896141ef565b61488360208301886141ef565b61489060408301876141ef565b61489d60608301866141ef565b6148aa6080830185613dc3565b6148b760a0830184613d8e565b979650505050505050565b60006148cc6148dd565b90506148d88282614bf5565b919050565b6000604051905090565b600067ffffffffffffffff82111561490257614901614cfb565b5b602082029050602081019050919050565b600067ffffffffffffffff82111561492e5761492d614cfb565b5b602082029050602081019050919050565b600067ffffffffffffffff82111561495a57614959614cfb565b5b61496382614d4c565b9050602081019050919050565b6000819050602082019050919050565b600081519050919050565b600081519050919050565b600081519050919050565b6000602082019050919050565b600082825260208201905092915050565b600082825260208201905092915050565b600082825260208201905092915050565b60006149ec82614b41565b91506149f783614b41565b9250827fffffffffffffffffffffffffffffffffffffffffffffffffffffffffffffffff03821115614a2c57614a2b614c9d565b5b828201905092915050565b6000614a4282614b41565b9150614a4d83614b41565b9250817fffffffffffffffffffffffffffffffffffffffffffffffffffffffffffffffff0483118215151615614a8657614a85614c9d565b5b828202905092915050565b6000614a9c82614b41565b9150614aa783614b41565b925082821015614aba57614ab9614c9d565b5b828203905092915050565b6000614ad082614b21565b9050919050565b6000614ae282614b21565b9050919050565b60008115159050919050565b60007fffffffff0000000000000000000000000000000000000000000000000000000082169050919050565b600073ffffffffffffffffffffffffffffffffffffffff82169050919050565b6000819050919050565b6000614b5682614b5d565b9050919050565b6000614b6882614b6f565b9050919050565b6000614b7a82614b21565b9050919050565b82818337600083830152505050565b60005b83811015614bae578082015181840152602081019050614b93565b83811115614bbd576000848401525b50505050565b60006002820490506001821680614bdb57607f821691505b60208210811415614bef57614bee614ccc565b5b50919050565b614bfe82614d4c565b810181811067ffffffffffffffff82111715614c1d57614c1c614cfb565b5b80604052505050565b6000614c3182614b41565b91507fffffffffffffffffffffffffffffffffffffffffffffffffffffffffffffffff821415614c6457614c63614c9d565b5b600182019050919050565b6000614c7a82614c81565b9050919050565b6000614c8c82614d5d565b9050919050565b6000819050919050565b7f4e487b7100000000000000000000000000000000000000000000000000000000600052601160045260246000fd5b7f4e487b7100000000000000000000000000000000000000000000000000000000600052602260045260246000fd5b7f4e487b7100000000000000000000000000000000000000000000000000000000600052604160045260246000fd5b600060033d1115614d495760046000803e614d46600051614d6a565b90505b90565b6000601f19601f8301169050919050565b60008160601b9050919050565b60008160e01c9050919050565b7f455243313135353a207472616e7366657220746f206e6f6e204552433131353560008201527f526563656976657220696d706c656d656e746572000000000000000000000000602082015250565b7f506c65617365207061792074686520657861637420616d6f756e740000000000600082015250565b7f455243313135353a204552433131353552656365697665722072656a6563746560008201527f6420746f6b656e73000000000000000000000000000000000000000000000000602082015250565b7f54686973206973206e6f742061206275796572206f722073656c6c6572206f6660008201527f20746869732070726f6475637421210000000000000000000000000000000000602082015250565b7f596f7520617265206e6f74207468652073656c6c6572206f662074686973207060008201527f726f647563742121000000000000000000000000000000000000000000000000602082015250565b7f455243313135353a2062616c616e636520717565727920666f7220746865207a60008201527f65726f2061646472657373000000000000000000000000000000000000000000602082015250565b7f455243313135353a206275726e20616d6f756e7420657863656564732062616c60008201527f616e636500000000000000000000000000000000000000000000000000000000602082015250565b7f455243313135353a2063616c6c6572206973206e6f74206f776e6572206e6f7260008201527f20617070726f7665640000000000000000000000000000000000000000000000602082015250565b7f54686973207472616e73616374696f6e206973206e6f7420646973707574656460008201527f2121000000000000000000000000000000000000000000000000000000000000602082015250565b7f596f7520617265206e6f7420746865206f776e65720000000000000000000000600082015250565b7f506c65617365207374616b65206d6f7265207468616e206f7220657175616c2060008201527f746f20302e303520657468657200000000000000000000000000000000000000602082015250565b7f455243313135353a207472616e7366657220746f20746865207a65726f20616460008201527f6472657373000000000000000000000000000000000000000000000000000000602082015250565b7f455243313135353a207472616e736665722063616c6c6572206973206e6f742060008201527f6f776e6572206e6f7220617070726f7665640000000000000000000000000000602082015250565b7f596f7520617265207468652073656c6c65720000000000000000000000000000600082015250565b7f455243313135353a206275726e2066726f6d20746865207a65726f206164647260008201527f6573730000000000000000000000000000000000000000000000000000000000602082015250565b7f455243313135353a20696e73756666696369656e742062616c616e636520666f60008201527f72207472616e7366657200000000000000000000000000000000000000000000602082015250565b7f596f7520617265206e6f7420746865206275796572206f66207468697320707260008201527f6f64756374212100000000000000000000000000000000000000000000000000602082015250565b7f455243313135353a2073657474696e6720617070726f76616c2073746174757360008201527f20666f722073656c660000000000000000000000000000000000000000000000602082015250565b7f455243313135353a206163636f756e747320616e6420696473206c656e67746860008201527f206d69736d617463680000000000000000000000000000000000000000000000602082015250565b7f455243313135353a2069647320616e6420616d6f756e7473206c656e6774682060008201527f6d69736d61746368000000000000000000000000000000000000000000000000602082015250565b7f455243313135353a206d696e7420746f20746865207a65726f2061646472657360008201527f7300000000000000000000000000000000000000000000000000000000000000602082015250565b7f596f75206861766520746f207374616b65206d696e696d756d20302e3035206560008201527f7468657200000000000000000000000000000000000000000000000000000000602082015250565b600060443d10156153df57615462565b6153e76148dd565b60043d036004823e80513d602482011167ffffffffffffffff8211171561540f575050615462565b808201805167ffffffffffffffff81111561542d5750505050615462565b80602083010160043d03850181111561544a575050505050615462565b61545982602001850186614bf5565b82955050505050505b90565b61546e81614ac5565b811461547957600080fd5b50565b61548581614ad7565b811461549057600080fd5b50565b61549c81614ae9565b81146154a757600080fd5b50565b6154b381614af5565b81146154be57600080fd5b50565b6154ca81614b41565b81146154d557600080fd5b5056fea26469706673582212209dbdb8ea6a1e72806207e9676f1e421d1f624b2a8344b9a547093324542794ee64736f6c6343000801003368747470733a2f2f75766f6a3238716e6839646a2e6d6f72616c6973686f73742e636f6d2f7b69647d2e6a736f6e",
  "immutableReferences": {},
  "source": "// SPDX-License-Identifier: MIT\npragma solidity ^0.8.0;\nimport \"./NFT.sol\";\nimport \"./Stakable.sol\";\n\ncontract Marketplace is NFT, Stakable{\n   \n   address payable public Owner;\n   enum status{Available, Sold}\n   status currentStatus;\n   string xyz;\n  \n   enum orderStatus{OrderPlaced, OrderCancelled, OrderConfirmed, Dispatched, Disputed}\n   orderStatus OrderStatus;\n   uint public receiptId;\n   uint public productId;\n   address payable burn =payable(0x000000000000000000000000000000000000dEaD);\n   \n   constructor() {\n       Owner= payable(msg.sender);\n       Receipts.push(receipt(0,0,0,burn,burn));\n       Products.push(product(xyz, 0,0, burn));\n   }\n   \n   struct product{\n       string name;\n       uint price;        // price per item\n       uint quantity;\n       address payable seller;\n     \n   }\n   //mapping (uint=>product) public Product;\n   event newProduct(uint productId, string name, uint price, uint quantity, address seller);\n   struct receipt{\n       uint productId;\n       uint quantity;\n       uint totalCost;\n       address payable buyer;\n       address payable seller;\n       \n   }\n   //mapping(uint=>receipt) public Receipt;\n   event newOrder(uint receiptId,uint productId,uint quantity, uint totalCost, address buyer,address seller);\n   receipt[] public Receipts;\n   product[] public Products;\n\n       \n   \n   modifier notSellor(uint _productId){\n       require (msg.sender != Products[_productId].seller, \"You are the seller\");\n       _;\n   }\n   \n   modifier cost(uint _price, uint _quantity){\n       require (msg.value==_price*_quantity,  \"Please pay the exact amount\");\n       _;\n   }\n   \n   modifier onlyBuyer(uint _receiptId){\n       require(Receipts[_receiptId].buyer==msg.sender, \"You are not the buyer of this product!!\");\n       _;\n   }\n   \n    modifier onlySeller(uint _receiptId){\n       require(Receipts[_receiptId].seller==msg.sender, \"You are not the seller of this product!!\");\n       _;\n   }\n   modifier onlyOwner(){\n       require (msg.sender == Owner, \"You are not the owner\");\n       _;\n   }\n    \n   \n    function listItem(string calldata _name, uint _price, uint _quantity) external onlyStakers {\n         productId++;\n         Products.push(product(_name, _price, _quantity, payable(msg.sender)));\n         if (_quantity>=1){\n             currentStatus = status.Available;\n             emit newProduct(productId, _name, _price, _quantity, msg.sender);\n         }\n          \n    }  \n   \n   function buy(uint _productId, uint _quantity) external payable notSellor(_productId) cost(Products[_productId].price, _quantity) onlyStakers{\n       require (currentStatus== status.Available);\n       Products[_productId].quantity-=_quantity;\n       OrderStatus= orderStatus.OrderPlaced;\n       uint _totalCost= Products[_productId].price*_quantity;\n       receiptId++;\n       Receipts.push(receipt(_productId, _quantity, _totalCost, payable(msg.sender),Products[_productId].seller));\n       emit newOrder(receiptId, _productId, _quantity, Products[_productId].price*_quantity, msg.sender, Products[_productId].seller);\n       \n       \n   }\n   \n   function orderAccept(uint _receiptId) external payable onlySeller(_receiptId){\n       \n           OrderStatus=orderStatus.OrderConfirmed;\n       }\n    \n   function orderReject(uint _receiptId) external payable onlySeller(_receiptId){\n       \n           OrderStatus=orderStatus.OrderCancelled;\n           Receipts[_receiptId].buyer.transfer(Receipts[_receiptId].totalCost);\n       }\n   \n   function itemDelivered(uint _receiptId) public onlyBuyer(_receiptId) {\n       Receipts[_receiptId].seller.transfer(Receipts[_receiptId].totalCost);\n       bytes memory packedDescription= abi.encodePacked(block.timestamp, _receiptId, block.difficulty, Receipts[_receiptId].productId, Receipts[_receiptId].quantity, Receipts[_receiptId].totalCost, Receipts[_receiptId].buyer, Receipts[_receiptId].seller, Receipts.length);\n       mintNFT(msg.sender, packedDescription);\n       mintNFT(Receipts[_receiptId].seller, packedDescription);\n   }\n   \n  function dispute(uint _receiptId) external payable {\n      require(msg.sender==Receipts[_receiptId].buyer||msg.sender==Receipts[_receiptId].seller);\n      OrderStatus=orderStatus.Disputed;\n       \n  }\n   \n    function resolve(uint _receiptId, address payable _justice) public payable onlyOwner {\n      require (_justice==Receipts[_receiptId].buyer||_justice==Receipts[_receiptId].seller, \"This is not a buyer or seller of this product!!\");\n      require (OrderStatus==orderStatus.Disputed, \"This transaction is not disputed!!\");      \n      _justice.transfer(Receipts[_receiptId].totalCost);\n    }\n    \n    \n}",
  "sourcePath": "/home/champ/Desktop/hackathon/BuyOnChain/contracts/Marketplace.sol",
  "compiler": {
    "name": "solc",
    "version": "0.8.1+commit.df193b15.Emscripten.clang"
  },
  "schemaVersion": "3.4.3",
  "updatedAt": "2021-10-06T07:45:25.120Z",
  "devdoc": {
    "kind": "dev",
    "methods": {
      "balanceOf(address,uint256)": {
        "details": "See {IERC1155-balanceOf}. Requirements: - `account` cannot be the zero address."
      },
      "balanceOfBatch(address[],uint256[])": {
        "details": "See {IERC1155-balanceOfBatch}. Requirements: - `accounts` and `ids` must have the same length."
      },
      "isApprovedForAll(address,address)": {
        "details": "See {IERC1155-isApprovedForAll}."
      },
      "safeBatchTransferFrom(address,address,uint256[],uint256[],bytes)": {
        "details": "See {IERC1155-safeBatchTransferFrom}."
      },
      "safeTransferFrom(address,address,uint256,uint256,bytes)": {
        "details": "See {IERC1155-safeTransferFrom}."
      },
      "setApprovalForAll(address,bool)": {
        "details": "See {IERC1155-setApprovalForAll}."
      },
      "supportsInterface(bytes4)": {
        "details": "See {IERC165-supportsInterface}."
      },
      "uri(uint256)": {
        "details": "See {IERC1155MetadataURI-uri}. This implementation returns the same URI for *all* token types. It relies on the token type ID substitution mechanism https://eips.ethereum.org/EIPS/eip-1155#metadata[defined in the EIP]. Clients calling this function must replace the `\\{id\\}` substring with the actual token type ID."
      }
    },
    "version": 1
  },
  "userdoc": {
    "events": {
      "Staked(address,uint256,uint256,uint256)": {
        "notice": "Staked event is triggered whenever a user stakes tokens, address is indexed to make it filterable"
      }
    },
    "kind": "user",
    "methods": {},
    "version": 1
  }
}