{
  "contractName": "NFT",
  "abi": [
    {
      "inputs": [],
      "stateMutability": "nonpayable",
      "type": "constructor"
    },
    {
      "anonymous": false,
      "inputs": [
        {
          "indexed": true,
          "internalType": "address",
          "name": "account",
          "type": "address"
        },
        {
          "indexed": true,
          "internalType": "address",
          "name": "operator",
          "type": "address"
        },
        {
          "indexed": false,
          "internalType": "bool",
          "name": "approved",
          "type": "bool"
        }
      ],
      "name": "ApprovalForAll",
      "type": "event"
    },
    {
      "anonymous": false,
      "inputs": [
        {
          "indexed": true,
          "internalType": "address",
          "name": "operator",
          "type": "address"
        },
        {
          "indexed": true,
          "internalType": "address",
          "name": "from",
          "type": "address"
        },
        {
          "indexed": true,
          "internalType": "address",
          "name": "to",
          "type": "address"
        },
        {
          "indexed": false,
          "internalType": "uint256[]",
          "name": "ids",
          "type": "uint256[]"
        },
        {
          "indexed": false,
          "internalType": "uint256[]",
          "name": "values",
          "type": "uint256[]"
        }
      ],
      "name": "TransferBatch",
      "type": "event"
    },
    {
      "anonymous": false,
      "inputs": [
        {
          "indexed": true,
          "internalType": "address",
          "name": "operator",
          "type": "address"
        },
        {
          "indexed": true,
          "internalType": "address",
          "name": "from",
          "type": "address"
        },
        {
          "indexed": true,
          "internalType": "address",
          "name": "to",
          "type": "address"
        },
        {
          "indexed": false,
          "internalType": "uint256",
          "name": "id",
          "type": "uint256"
        },
        {
          "indexed": false,
          "internalType": "uint256",
          "name": "value",
          "type": "uint256"
        }
      ],
      "name": "TransferSingle",
      "type": "event"
    },
    {
      "anonymous": false,
      "inputs": [
        {
          "indexed": false,
          "internalType": "string",
          "name": "value",
          "type": "string"
        },
        {
          "indexed": true,
          "internalType": "uint256",
          "name": "id",
          "type": "uint256"
        }
      ],
      "name": "URI",
      "type": "event"
    },
    {
      "inputs": [
        {
          "internalType": "address",
          "name": "account",
          "type": "address"
        },
        {
          "internalType": "uint256",
          "name": "id",
          "type": "uint256"
        }
      ],
      "name": "balanceOf",
      "outputs": [
        {
          "internalType": "uint256",
          "name": "",
          "type": "uint256"
        }
      ],
      "stateMutability": "view",
      "type": "function",
      "constant": true
    },
    {
      "inputs": [
        {
          "internalType": "address[]",
          "name": "accounts",
          "type": "address[]"
        },
        {
          "internalType": "uint256[]",
          "name": "ids",
          "type": "uint256[]"
        }
      ],
      "name": "balanceOfBatch",
      "outputs": [
        {
          "internalType": "uint256[]",
          "name": "",
          "type": "uint256[]"
        }
      ],
      "stateMutability": "view",
      "type": "function",
      "constant": true
    },
    {
      "inputs": [],
      "name": "buyerReceipt",
      "outputs": [
        {
          "internalType": "uint256",
          "name": "",
          "type": "uint256"
        }
      ],
      "stateMutability": "view",
      "type": "function",
      "constant": true
    },
    {
      "inputs": [
        {
          "internalType": "address",
          "name": "account",
          "type": "address"
        },
        {
          "internalType": "address",
          "name": "operator",
          "type": "address"
        }
      ],
      "name": "isApprovedForAll",
      "outputs": [
        {
          "internalType": "bool",
          "name": "",
          "type": "bool"
        }
      ],
      "stateMutability": "view",
      "type": "function",
      "constant": true
    },
    {
      "inputs": [
        {
          "internalType": "address",
          "name": "from",
          "type": "address"
        },
        {
          "internalType": "address",
          "name": "to",
          "type": "address"
        },
        {
          "internalType": "uint256[]",
          "name": "ids",
          "type": "uint256[]"
        },
        {
          "internalType": "uint256[]",
          "name": "amounts",
          "type": "uint256[]"
        },
        {
          "internalType": "bytes",
          "name": "data",
          "type": "bytes"
        }
      ],
      "name": "safeBatchTransferFrom",
      "outputs": [],
      "stateMutability": "nonpayable",
      "type": "function"
    },
    {
      "inputs": [
        {
          "internalType": "address",
          "name": "from",
          "type": "address"
        },
        {
          "internalType": "address",
          "name": "to",
          "type": "address"
        },
        {
          "internalType": "uint256",
          "name": "id",
          "type": "uint256"
        },
        {
          "internalType": "uint256",
          "name": "amount",
          "type": "uint256"
        },
        {
          "internalType": "bytes",
          "name": "data",
          "type": "bytes"
        }
      ],
      "name": "safeTransferFrom",
      "outputs": [],
      "stateMutability": "nonpayable",
      "type": "function"
    },
    {
      "inputs": [],
      "name": "sellerReceipt",
      "outputs": [
        {
          "internalType": "uint256",
          "name": "",
          "type": "uint256"
        }
      ],
      "stateMutability": "view",
      "type": "function",
      "constant": true
    },
    {
      "inputs": [
        {
          "internalType": "address",
          "name": "operator",
          "type": "address"
        },
        {
          "internalType": "bool",
          "name": "approved",
          "type": "bool"
        }
      ],
      "name": "setApprovalForAll",
      "outputs": [],
      "stateMutability": "nonpayable",
      "type": "function"
    },
    {
      "inputs": [
        {
          "internalType": "bytes4",
          "name": "interfaceId",
          "type": "bytes4"
        }
      ],
      "name": "supportsInterface",
      "outputs": [
        {
          "internalType": "bool",
          "name": "",
          "type": "bool"
        }
      ],
      "stateMutability": "view",
      "type": "function",
      "constant": true
    },
    {
      "inputs": [
        {
          "internalType": "uint256",
          "name": "",
          "type": "uint256"
        }
      ],
      "name": "uri",
      "outputs": [
        {
          "internalType": "string",
          "name": "",
          "type": "string"
        }
      ],
      "stateMutability": "view",
      "type": "function",
      "constant": true
    },
    {
      "inputs": [
        {
          "internalType": "address",
          "name": "account",
          "type": "address"
        },
        {
          "internalType": "bytes",
          "name": "description",
          "type": "bytes"
        }
      ],
      "name": "mintNFT",
      "outputs": [],
      "stateMutability": "nonpayable",
      "type": "function"
    },
    {
      "inputs": [
        {
          "internalType": "address",
          "name": "account",
          "type": "address"
        },
        {
          "internalType": "uint256",
          "name": "id",
          "type": "uint256"
        },
        {
          "internalType": "uint256",
          "name": "amount",
          "type": "uint256"
        }
      ],
      "name": "burnNFT",
      "outputs": [],
      "stateMutability": "nonpayable",
      "type": "function"
    }
  ],
  "bytecode": "0x60806040523480156200001157600080fd5b506040518060600160405280602e815260200162002ed5602e91396200003d816200004460201b60201c565b5062000175565b80600290805190602001906200005c92919062000060565b5050565b8280546200006e9062000110565b90600052602060002090601f016020900481019282620000925760008555620000de565b82601f10620000ad57805160ff1916838001178555620000de565b82800160010185558215620000de579182015b82811115620000dd578251825591602001919060010190620000c0565b5b509050620000ed9190620000f1565b5090565b5b808211156200010c576000816000905550600101620000f2565b5090565b600060028204905060018216806200012957607f821691505b6020821081141562000140576200013f62000146565b5b50919050565b7f4e487b7100000000000000000000000000000000000000000000000000000000600052602260045260246000fd5b612d5080620001856000396000f3fe608060405234801561001057600080fd5b50600436106100b35760003560e01c80634e1273f4116100715780634e1273f41461019e57806381fca999146101ce578063a22cb465146101ec578063e83b022714610208578063e985e9c514610224578063f242432a14610254576100b3565b8062fdd58e146100b857806301ffc9a7146100e8578063044fbeac146101185780630e89341c146101365780631cc509fd146101665780632eb2c2d614610182575b600080fd5b6100d260048036038101906100cd9190611ce8565b610270565b6040516100df919061243d565b60405180910390f35b61010260048036038101906100fd9190611ddf565b610339565b60405161010f9190612260565b60405180910390f35b61012061041b565b60405161012d919061243d565b60405180910390f35b610150600480360381019061014b9190611e31565b610420565b60405161015d919061227b565b60405180910390f35b610180600480360381019061017b9190611d24565b6104b4565b005b61019c60048036038101906101979190611b0a565b6104fc565b005b6101b860048036038101906101b39190611d73565b61059d565b6040516101c59190612207565b60405180910390f35b6101d661074e565b6040516101e3919061243d565b60405180910390f35b61020660048036038101906102019190611c58565b610753565b005b610222600480360381019061021d9190611c94565b6108d4565b005b61023e60048036038101906102399190611ace565b6108e6565b60405161024b9190612260565b60405180910390f35b61026e60048036038101906102699190611bc9565b61097a565b005b60008073ffffffffffffffffffffffffffffffffffffffff168373ffffffffffffffffffffffffffffffffffffffff1614156102e1576040517f08c379a00000000000000000000000000000000000000000000000000000000081526004016102d8906122dd565b60405180910390fd5b60008083815260200190815260200160002060008473ffffffffffffffffffffffffffffffffffffffff1673ffffffffffffffffffffffffffffffffffffffff16815260200190815260200160002054905092915050565b60007fd9b67a26000000000000000000000000000000000000000000000000000000007bffffffffffffffffffffffffffffffffffffffffffffffffffffffff1916827bffffffffffffffffffffffffffffffffffffffffffffffffffffffff1916148061040457507f0e89341c000000000000000000000000000000000000000000000000000000007bffffffffffffffffffffffffffffffffffffffffffffffffffffffff1916827bffffffffffffffffffffffffffffffffffffffffffffffffffffffff1916145b80610414575061041382610a1b565b5b9050919050565b600081565b60606002805461042f906126ac565b80601f016020809104026020016040519081016040528092919081815260200182805461045b906126ac565b80156104a85780601f1061047d576101008083540402835291602001916104a8565b820191906000526020600020905b81548152906001019060200180831161048b57829003601f168201915b50505050509050919050565b8273ffffffffffffffffffffffffffffffffffffffff163373ffffffffffffffffffffffffffffffffffffffff16146104ec57600080fd5b6104f7838383610a85565b505050565b610504610ca2565b73ffffffffffffffffffffffffffffffffffffffff168573ffffffffffffffffffffffffffffffffffffffff16148061054a575061054985610544610ca2565b6108e6565b5b610589576040517f08c379a00000000000000000000000000000000000000000000000000000000081526004016105809061235d565b60405180910390fd5b6105968585858585610caa565b5050505050565b606081518351146105e3576040517f08c379a00000000000000000000000000000000000000000000000000000000081526004016105da906123dd565b60405180910390fd5b6000835167ffffffffffffffff811115610626577f4e487b7100000000000000000000000000000000000000000000000000000000600052604160045260246000fd5b6040519080825280602002602001820160405280156106545781602001602082028036833780820191505090505b50905060005b8451811015610743576106ed85828151811061069f577f4e487b7100000000000000000000000000000000000000000000000000000000600052603260045260246000fd5b60200260200101518583815181106106e0577f4e487b7100000000000000000000000000000000000000000000000000000000600052603260045260246000fd5b6020026020010151610270565b828281518110610726577f4e487b7100000000000000000000000000000000000000000000000000000000600052603260045260246000fd5b6020026020010181815250508061073c9061270f565b905061065a565b508091505092915050565b600181565b8173ffffffffffffffffffffffffffffffffffffffff16610772610ca2565b73ffffffffffffffffffffffffffffffffffffffff1614156107c9576040517f08c379a00000000000000000000000000000000000000000000000000000000081526004016107c0906123bd565b60405180910390fd5b80600160006107d6610ca2565b73ffffffffffffffffffffffffffffffffffffffff1673ffffffffffffffffffffffffffffffffffffffff16815260200190815260200160002060008473ffffffffffffffffffffffffffffffffffffffff1673ffffffffffffffffffffffffffffffffffffffff16815260200190815260200160002060006101000a81548160ff0219169083151502179055508173ffffffffffffffffffffffffffffffffffffffff16610883610ca2565b73ffffffffffffffffffffffffffffffffffffffff167f17307eab39ab6107e8899845ad3d59bd9653f200f220920489ca2b5937696c31836040516108c89190612260565b60405180910390a35050565b6108e282600060018461100a565b5050565b6000600160008473ffffffffffffffffffffffffffffffffffffffff1673ffffffffffffffffffffffffffffffffffffffff16815260200190815260200160002060008373ffffffffffffffffffffffffffffffffffffffff1673ffffffffffffffffffffffffffffffffffffffff16815260200190815260200160002060009054906101000a900460ff16905092915050565b610982610ca2565b73ffffffffffffffffffffffffffffffffffffffff168573ffffffffffffffffffffffffffffffffffffffff1614806109c857506109c7856109c2610ca2565b6108e6565b5b610a07576040517f08c379a00000000000000000000000000000000000000000000000000000000081526004016109fe9061231d565b60405180910390fd5b610a1485858585856111a0565b5050505050565b60007f01ffc9a7000000000000000000000000000000000000000000000000000000007bffffffffffffffffffffffffffffffffffffffffffffffffffffffff1916827bffffffffffffffffffffffffffffffffffffffffffffffffffffffff1916149050919050565b600073ffffffffffffffffffffffffffffffffffffffff168373ffffffffffffffffffffffffffffffffffffffff161415610af5576040517f08c379a0000000000000000000000000000000000000000000000000000000008152600401610aec9061237d565b60405180910390fd5b6000610aff610ca2565b9050610b2f81856000610b1187611422565b610b1a87611422565b604051806020016040528060008152506114e8565b600080600085815260200190815260200160002060008673ffffffffffffffffffffffffffffffffffffffff1673ffffffffffffffffffffffffffffffffffffffff16815260200190815260200160002054905082811015610bc6576040517f08c379a0000000000000000000000000000000000000000000000000000000008152600401610bbd906122fd565b60405180910390fd5b82810360008086815260200190815260200160002060008773ffffffffffffffffffffffffffffffffffffffff1673ffffffffffffffffffffffffffffffffffffffff16815260200190815260200160002081905550600073ffffffffffffffffffffffffffffffffffffffff168573ffffffffffffffffffffffffffffffffffffffff168373ffffffffffffffffffffffffffffffffffffffff167fc3d58168c5ae7397731d063d5bbf3d657854427343f4c083240f7aacaa2d0f628787604051610c93929190612458565b60405180910390a45050505050565b600033905090565b8151835114610cee576040517f08c379a0000000000000000000000000000000000000000000000000000000008152600401610ce5906123fd565b60405180910390fd5b600073ffffffffffffffffffffffffffffffffffffffff168473ffffffffffffffffffffffffffffffffffffffff161415610d5e576040517f08c379a0000000000000000000000000000000000000000000000000000000008152600401610d559061233d565b60405180910390fd5b6000610d68610ca2565b9050610d788187878787876114e8565b60005b8451811015610f75576000858281518110610dbf577f4e487b7100000000000000000000000000000000000000000000000000000000600052603260045260246000fd5b602002602001015190506000858381518110610e04577f4e487b7100000000000000000000000000000000000000000000000000000000600052603260045260246000fd5b60200260200101519050600080600084815260200190815260200160002060008b73ffffffffffffffffffffffffffffffffffffffff1673ffffffffffffffffffffffffffffffffffffffff16815260200190815260200160002054905081811015610ea5576040517f08c379a0000000000000000000000000000000000000000000000000000000008152600401610e9c9061239d565b60405180910390fd5b81810360008085815260200190815260200160002060008c73ffffffffffffffffffffffffffffffffffffffff1673ffffffffffffffffffffffffffffffffffffffff168152602001908152602001600020819055508160008085815260200190815260200160002060008b73ffffffffffffffffffffffffffffffffffffffff1673ffffffffffffffffffffffffffffffffffffffff1681526020019081526020016000206000828254610f5a91906125a0565b9250508190555050505080610f6e9061270f565b9050610d7b565b508473ffffffffffffffffffffffffffffffffffffffff168673ffffffffffffffffffffffffffffffffffffffff168273ffffffffffffffffffffffffffffffffffffffff167f4a39dc06d4c0dbc64b70af90fd698a233a518aa5d07e595d983b8c0526c8f7fb8787604051610fec929190612229565b60405180910390a46110028187878787876114f0565b505050505050565b600073ffffffffffffffffffffffffffffffffffffffff168473ffffffffffffffffffffffffffffffffffffffff16141561107a576040517f08c379a00000000000000000000000000000000000000000000000000000000081526004016110719061241d565b60405180910390fd5b6000611084610ca2565b90506110a58160008761109688611422565b61109f88611422565b876114e8565b8260008086815260200190815260200160002060008773ffffffffffffffffffffffffffffffffffffffff1673ffffffffffffffffffffffffffffffffffffffff168152602001908152602001600020600082825461110491906125a0565b925050819055508473ffffffffffffffffffffffffffffffffffffffff16600073ffffffffffffffffffffffffffffffffffffffff168273ffffffffffffffffffffffffffffffffffffffff167fc3d58168c5ae7397731d063d5bbf3d657854427343f4c083240f7aacaa2d0f628787604051611182929190612458565b60405180910390a4611199816000878787876116d7565b5050505050565b600073ffffffffffffffffffffffffffffffffffffffff168473ffffffffffffffffffffffffffffffffffffffff161415611210576040517f08c379a00000000000000000000000000000000000000000000000000000000081526004016112079061233d565b60405180910390fd5b600061121a610ca2565b905061123a81878761122b88611422565b61123488611422565b876114e8565b600080600086815260200190815260200160002060008873ffffffffffffffffffffffffffffffffffffffff1673ffffffffffffffffffffffffffffffffffffffff168152602001908152602001600020549050838110156112d1576040517f08c379a00000000000000000000000000000000000000000000000000000000081526004016112c89061239d565b60405180910390fd5b83810360008087815260200190815260200160002060008973ffffffffffffffffffffffffffffffffffffffff1673ffffffffffffffffffffffffffffffffffffffff168152602001908152602001600020819055508360008087815260200190815260200160002060008873ffffffffffffffffffffffffffffffffffffffff1673ffffffffffffffffffffffffffffffffffffffff168152602001908152602001600020600082825461138691906125a0565b925050819055508573ffffffffffffffffffffffffffffffffffffffff168773ffffffffffffffffffffffffffffffffffffffff168373ffffffffffffffffffffffffffffffffffffffff167fc3d58168c5ae7397731d063d5bbf3d657854427343f4c083240f7aacaa2d0f628888604051611403929190612458565b60405180910390a46114198288888888886116d7565b50505050505050565b60606000600167ffffffffffffffff811115611467577f4e487b7100000000000000000000000000000000000000000000000000000000600052604160045260246000fd5b6040519080825280602002602001820160405280156114955781602001602082028036833780820191505090505b50905082816000815181106114d3577f4e487b7100000000000000000000000000000000000000000000000000000000600052603260045260246000fd5b60200260200101818152505080915050919050565b505050505050565b61150f8473ffffffffffffffffffffffffffffffffffffffff166118be565b156116cf578373ffffffffffffffffffffffffffffffffffffffff1663bc197c8187878686866040518663ffffffff1660e01b8152600401611555959493929190612145565b602060405180830381600087803b15801561156f57600080fd5b505af19250505080156115a057506040513d601f19601f8201168201806040525081019061159d9190611e08565b60015b611646576115ac6127e5565b806308c379a0141561160957506115c1612c28565b806115cc575061160b565b806040517f08c379a0000000000000000000000000000000000000000000000000000000008152600401611600919061227b565b60405180910390fd5b505b6040517f08c379a000000000000000000000000000000000000000000000000000000000815260040161163d9061229d565b60405180910390fd5b63bc197c8160e01b7bffffffffffffffffffffffffffffffffffffffffffffffffffffffff1916817bffffffffffffffffffffffffffffffffffffffffffffffffffffffff1916146116cd576040517f08c379a00000000000000000000000000000000000000000000000000000000081526004016116c4906122bd565b60405180910390fd5b505b505050505050565b6116f68473ffffffffffffffffffffffffffffffffffffffff166118be565b156118b6578373ffffffffffffffffffffffffffffffffffffffff1663f23a6e6187878686866040518663ffffffff1660e01b815260040161173c9594939291906121ad565b602060405180830381600087803b15801561175657600080fd5b505af192505050801561178757506040513d601f19601f820116820180604052508101906117849190611e08565b60015b61182d576117936127e5565b806308c379a014156117f057506117a8612c28565b806117b357506117f2565b806040517f08c379a00000000000000000000000000000000000000000000000000000000081526004016117e7919061227b565b60405180910390fd5b505b6040517f08c379a00000000000000000000000000000000000000000000000000000000081526004016118249061229d565b60405180910390fd5b63f23a6e6160e01b7bffffffffffffffffffffffffffffffffffffffffffffffffffffffff1916817bffffffffffffffffffffffffffffffffffffffffffffffffffffffff1916146118b4576040517f08c379a00000000000000000000000000000000000000000000000000000000081526004016118ab906122bd565b60405180910390fd5b505b505050505050565b600080823b905060008111915050919050565b60006118e46118df846124a6565b612481565b9050808382526020820190508285602086028201111561190357600080fd5b60005b85811015611933578161191988826119e7565b845260208401935060208301925050600181019050611906565b5050509392505050565b600061195061194b846124d2565b612481565b9050808382526020820190508285602086028201111561196f57600080fd5b60005b8581101561199f57816119858882611ab9565b845260208401935060208301925050600181019050611972565b5050509392505050565b60006119bc6119b7846124fe565b612481565b9050828152602081018484840111156119d457600080fd5b6119df84828561266a565b509392505050565b6000813590506119f681612cbe565b92915050565b600082601f830112611a0d57600080fd5b8135611a1d8482602086016118d1565b91505092915050565b600082601f830112611a3757600080fd5b8135611a4784826020860161193d565b91505092915050565b600081359050611a5f81612cd5565b92915050565b600081359050611a7481612cec565b92915050565b600081519050611a8981612cec565b92915050565b600082601f830112611aa057600080fd5b8135611ab08482602086016119a9565b91505092915050565b600081359050611ac881612d03565b92915050565b60008060408385031215611ae157600080fd5b6000611aef858286016119e7565b9250506020611b00858286016119e7565b9150509250929050565b600080600080600060a08688031215611b2257600080fd5b6000611b30888289016119e7565b9550506020611b41888289016119e7565b945050604086013567ffffffffffffffff811115611b5e57600080fd5b611b6a88828901611a26565b935050606086013567ffffffffffffffff811115611b8757600080fd5b611b9388828901611a26565b925050608086013567ffffffffffffffff811115611bb057600080fd5b611bbc88828901611a8f565b9150509295509295909350565b600080600080600060a08688031215611be157600080fd5b6000611bef888289016119e7565b9550506020611c00888289016119e7565b9450506040611c1188828901611ab9565b9350506060611c2288828901611ab9565b925050608086013567ffffffffffffffff811115611c3f57600080fd5b611c4b88828901611a8f565b9150509295509295909350565b60008060408385031215611c6b57600080fd5b6000611c79858286016119e7565b9250506020611c8a85828601611a50565b9150509250929050565b60008060408385031215611ca757600080fd5b6000611cb5858286016119e7565b925050602083013567ffffffffffffffff811115611cd257600080fd5b611cde85828601611a8f565b9150509250929050565b60008060408385031215611cfb57600080fd5b6000611d09858286016119e7565b9250506020611d1a85828601611ab9565b9150509250929050565b600080600060608486031215611d3957600080fd5b6000611d47868287016119e7565b9350506020611d5886828701611ab9565b9250506040611d6986828701611ab9565b9150509250925092565b60008060408385031215611d8657600080fd5b600083013567ffffffffffffffff811115611da057600080fd5b611dac858286016119fc565b925050602083013567ffffffffffffffff811115611dc957600080fd5b611dd585828601611a26565b9150509250929050565b600060208284031215611df157600080fd5b6000611dff84828501611a65565b91505092915050565b600060208284031215611e1a57600080fd5b6000611e2884828501611a7a565b91505092915050565b600060208284031215611e4357600080fd5b6000611e5184828501611ab9565b91505092915050565b6000611e668383612127565b60208301905092915050565b611e7b816125f6565b82525050565b6000611e8c8261253f565b611e96818561256d565b9350611ea18361252f565b8060005b83811015611ed2578151611eb98882611e5a565b9750611ec483612560565b925050600181019050611ea5565b5085935050505092915050565b611ee881612608565b82525050565b6000611ef98261254a565b611f03818561257e565b9350611f13818560208601612679565b611f1c81612807565b840191505092915050565b6000611f3282612555565b611f3c818561258f565b9350611f4c818560208601612679565b611f5581612807565b840191505092915050565b6000611f6d60348361258f565b9150611f7882612825565b604082019050919050565b6000611f9060288361258f565b9150611f9b82612874565b604082019050919050565b6000611fb3602b8361258f565b9150611fbe826128c3565b604082019050919050565b6000611fd660248361258f565b9150611fe182612912565b604082019050919050565b6000611ff960298361258f565b915061200482612961565b604082019050919050565b600061201c60258361258f565b9150612027826129b0565b604082019050919050565b600061203f60328361258f565b915061204a826129ff565b604082019050919050565b600061206260238361258f565b915061206d82612a4e565b604082019050919050565b6000612085602a8361258f565b915061209082612a9d565b604082019050919050565b60006120a860298361258f565b91506120b382612aec565b604082019050919050565b60006120cb60298361258f565b91506120d682612b3b565b604082019050919050565b60006120ee60288361258f565b91506120f982612b8a565b604082019050919050565b600061211160218361258f565b915061211c82612bd9565b604082019050919050565b61213081612660565b82525050565b61213f81612660565b82525050565b600060a08201905061215a6000830188611e72565b6121676020830187611e72565b81810360408301526121798186611e81565b9050818103606083015261218d8185611e81565b905081810360808301526121a18184611eee565b90509695505050505050565b600060a0820190506121c26000830188611e72565b6121cf6020830187611e72565b6121dc6040830186612136565b6121e96060830185612136565b81810360808301526121fb8184611eee565b90509695505050505050565b600060208201905081810360008301526122218184611e81565b905092915050565b600060408201905081810360008301526122438185611e81565b905081810360208301526122578184611e81565b90509392505050565b60006020820190506122756000830184611edf565b92915050565b600060208201905081810360008301526122958184611f27565b905092915050565b600060208201905081810360008301526122b681611f60565b9050919050565b600060208201905081810360008301526122d681611f83565b9050919050565b600060208201905081810360008301526122f681611fa6565b9050919050565b6000602082019050818103600083015261231681611fc9565b9050919050565b6000602082019050818103600083015261233681611fec565b9050919050565b600060208201905081810360008301526123568161200f565b9050919050565b6000602082019050818103600083015261237681612032565b9050919050565b6000602082019050818103600083015261239681612055565b9050919050565b600060208201905081810360008301526123b681612078565b9050919050565b600060208201905081810360008301526123d68161209b565b9050919050565b600060208201905081810360008301526123f6816120be565b9050919050565b60006020820190508181036000830152612416816120e1565b9050919050565b6000602082019050818103600083015261243681612104565b9050919050565b60006020820190506124526000830184612136565b92915050565b600060408201905061246d6000830185612136565b61247a6020830184612136565b9392505050565b600061248b61249c565b905061249782826126de565b919050565b6000604051905090565b600067ffffffffffffffff8211156124c1576124c06127b6565b5b602082029050602081019050919050565b600067ffffffffffffffff8211156124ed576124ec6127b6565b5b602082029050602081019050919050565b600067ffffffffffffffff821115612519576125186127b6565b5b61252282612807565b9050602081019050919050565b6000819050602082019050919050565b600081519050919050565b600081519050919050565b600081519050919050565b6000602082019050919050565b600082825260208201905092915050565b600082825260208201905092915050565b600082825260208201905092915050565b60006125ab82612660565b91506125b683612660565b9250827fffffffffffffffffffffffffffffffffffffffffffffffffffffffffffffffff038211156125eb576125ea612758565b5b828201905092915050565b600061260182612640565b9050919050565b60008115159050919050565b60007fffffffff0000000000000000000000000000000000000000000000000000000082169050919050565b600073ffffffffffffffffffffffffffffffffffffffff82169050919050565b6000819050919050565b82818337600083830152505050565b60005b8381101561269757808201518184015260208101905061267c565b838111156126a6576000848401525b50505050565b600060028204905060018216806126c457607f821691505b602082108114156126d8576126d7612787565b5b50919050565b6126e782612807565b810181811067ffffffffffffffff82111715612706576127056127b6565b5b80604052505050565b600061271a82612660565b91507fffffffffffffffffffffffffffffffffffffffffffffffffffffffffffffffff82141561274d5761274c612758565b5b600182019050919050565b7f4e487b7100000000000000000000000000000000000000000000000000000000600052601160045260246000fd5b7f4e487b7100000000000000000000000000000000000000000000000000000000600052602260045260246000fd5b7f4e487b7100000000000000000000000000000000000000000000000000000000600052604160045260246000fd5b600060033d11156128045760046000803e612801600051612818565b90505b90565b6000601f19601f8301169050919050565b60008160e01c9050919050565b7f455243313135353a207472616e7366657220746f206e6f6e204552433131353560008201527f526563656976657220696d706c656d656e746572000000000000000000000000602082015250565b7f455243313135353a204552433131353552656365697665722072656a6563746560008201527f6420746f6b656e73000000000000000000000000000000000000000000000000602082015250565b7f455243313135353a2062616c616e636520717565727920666f7220746865207a60008201527f65726f2061646472657373000000000000000000000000000000000000000000602082015250565b7f455243313135353a206275726e20616d6f756e7420657863656564732062616c60008201527f616e636500000000000000000000000000000000000000000000000000000000602082015250565b7f455243313135353a2063616c6c6572206973206e6f74206f776e6572206e6f7260008201527f20617070726f7665640000000000000000000000000000000000000000000000602082015250565b7f455243313135353a207472616e7366657220746f20746865207a65726f20616460008201527f6472657373000000000000000000000000000000000000000000000000000000602082015250565b7f455243313135353a207472616e736665722063616c6c6572206973206e6f742060008201527f6f776e6572206e6f7220617070726f7665640000000000000000000000000000602082015250565b7f455243313135353a206275726e2066726f6d20746865207a65726f206164647260008201527f6573730000000000000000000000000000000000000000000000000000000000602082015250565b7f455243313135353a20696e73756666696369656e742062616c616e636520666f60008201527f72207472616e7366657200000000000000000000000000000000000000000000602082015250565b7f455243313135353a2073657474696e6720617070726f76616c2073746174757360008201527f20666f722073656c660000000000000000000000000000000000000000000000602082015250565b7f455243313135353a206163636f756e747320616e6420696473206c656e67746860008201527f206d69736d617463680000000000000000000000000000000000000000000000602082015250565b7f455243313135353a2069647320616e6420616d6f756e7473206c656e6774682060008201527f6d69736d61746368000000000000000000000000000000000000000000000000602082015250565b7f455243313135353a206d696e7420746f20746865207a65726f2061646472657360008201527f7300000000000000000000000000000000000000000000000000000000000000602082015250565b600060443d1015612c3857612cbb565b612c4061249c565b60043d036004823e80513d602482011167ffffffffffffffff82111715612c68575050612cbb565b808201805167ffffffffffffffff811115612c865750505050612cbb565b80602083010160043d038501811115612ca3575050505050612cbb565b612cb2826020018501866126de565b82955050505050505b90565b612cc7816125f6565b8114612cd257600080fd5b50565b612cde81612608565b8114612ce957600080fd5b50565b612cf581612614565b8114612d0057600080fd5b50565b612d0c81612660565b8114612d1757600080fd5b5056fea2646970667358221220ee65a0f71be01e4bb223dbab2d4f22112e0f8c509b110037c4374823f299442164736f6c6343000801003368747470733a2f2f75766f6a3238716e6839646a2e6d6f72616c6973686f73742e636f6d2f7b69647d2e6a736f6e",
  "immutableReferences": {},
  "source": "// SPDX-License-Identifier: MIT\npragma solidity ^0.8.0;\n\nimport \"@openzeppelin/contracts/token/ERC1155/ERC1155.sol\";\nimport \"@openzeppelin/contracts/utils/Counters.sol\";\n//import \"@openzeppelin/contracts/access/Ownable.sol\";\n\ncontract NFT is ERC1155{\n    uint public constant buyerReceipt = 0;\n    uint public constant sellerReceipt = 1;\n\n    using Counters for Counters.Counter;\n    Counters.Counter private _tokenIds;\n\n    constructor () ERC1155(\"https://uvoj28qnh9dj.moralishost.com/{id}.json\"){\n        \n       \n    }\n    //  function _mint(\n    //     address account,\n    //     uint256 id,\n    //     uint256 amount,\n    //     bytes memory data\n    // )\n\n    function mintNFT(address account, bytes memory description) public{\n          _mint(account, buyerReceipt, 1, description);\n    }\n\n    function burnNFT(address account, uint id, uint amount) public{\n        require(msg.sender==account);\n        _burn(account, id, amount);\n    }\n\n    // struct Item{\n    //     uint id;\n    //     address creator;\n    //     string uri;\n    // }\n    // mapping (uint=>Item) public Items;\n\n    // function createItem(string memory uri) public returns(uint){\n    //     _tokenIds.increment();\n    //     uint newItemId = _tokenIds.current();\n    //     _mint(msg.sender, newItemId, 1,\"\");\n    //     Items[newItemId] = Item(newItemId, msg.sender, uri);\n    //     return newItemId;\n    // }\n\n}",
  "sourcePath": "/home/champ/Desktop/hackathon/BuyOnChain/contracts/NFT.sol",
  "compiler": {
    "name": "solc",
    "version": "0.8.1+commit.df193b15.Emscripten.clang"
  },
  "schemaVersion": "3.4.3",
  "updatedAt": "2021-10-04T18:53:17.644Z",
  "networkType": "ethereum",
  "devdoc": {
    "kind": "dev",
    "methods": {
      "balanceOf(address,uint256)": {
        "details": "See {IERC1155-balanceOf}. Requirements: - `account` cannot be the zero address."
      },
      "balanceOfBatch(address[],uint256[])": {
        "details": "See {IERC1155-balanceOfBatch}. Requirements: - `accounts` and `ids` must have the same length."
      },
      "isApprovedForAll(address,address)": {
        "details": "See {IERC1155-isApprovedForAll}."
      },
      "safeBatchTransferFrom(address,address,uint256[],uint256[],bytes)": {
        "details": "See {IERC1155-safeBatchTransferFrom}."
      },
      "safeTransferFrom(address,address,uint256,uint256,bytes)": {
        "details": "See {IERC1155-safeTransferFrom}."
      },
      "setApprovalForAll(address,bool)": {
        "details": "See {IERC1155-setApprovalForAll}."
      },
      "supportsInterface(bytes4)": {
        "details": "See {IERC165-supportsInterface}."
      },
      "uri(uint256)": {
        "details": "See {IERC1155MetadataURI-uri}. This implementation returns the same URI for *all* token types. It relies on the token type ID substitution mechanism https://eips.ethereum.org/EIPS/eip-1155#metadata[defined in the EIP]. Clients calling this function must replace the `\\{id\\}` substring with the actual token type ID."
      }
    },
    "version": 1
  },
  "userdoc": {
    "kind": "user",
    "methods": {},
    "version": 1
  }
}