{
  "contractName": "Stakable",
  "abi": [
    {
      "inputs": [],
      "stateMutability": "nonpayable",
      "type": "constructor"
    },
    {
      "anonymous": false,
      "inputs": [
        {
          "indexed": true,
          "internalType": "address",
          "name": "user",
          "type": "address"
        },
        {
          "indexed": false,
          "internalType": "uint256",
          "name": "amount",
          "type": "uint256"
        },
        {
          "indexed": false,
          "internalType": "uint256",
          "name": "index",
          "type": "uint256"
        },
        {
          "indexed": false,
          "internalType": "uint256",
          "name": "timestamp",
          "type": "uint256"
        }
      ],
      "name": "Staked",
      "type": "event"
    },
    {
      "inputs": [],
      "name": "Admin",
      "outputs": [
        {
          "internalType": "address payable",
          "name": "",
          "type": "address"
        }
      ],
      "stateMutability": "view",
      "type": "function",
      "constant": true
    },
    {
      "inputs": [],
      "name": "Stake",
      "outputs": [],
      "stateMutability": "payable",
      "type": "function",
      "payable": true
    }
  ],
  "bytecode": "0x608060405261dead6000806101000a81548173ffffffffffffffffffffffffffffffffffffffff021916908373ffffffffffffffffffffffffffffffffffffffff16021790555034801561005257600080fd5b506002604051806060016040528060008054906101000a900473ffffffffffffffffffffffffffffffffffffffff1673ffffffffffffffffffffffffffffffffffffffff1681526020016000815260200142815250908060018154018082558091505060019003906000526020600020906003020160009091909190915060008201518160000160006101000a81548173ffffffffffffffffffffffffffffffffffffffff021916908373ffffffffffffffffffffffffffffffffffffffff1602179055506020820151816001015560408201518160020155505033600160006101000a81548173ffffffffffffffffffffffffffffffffffffffff021916908373ffffffffffffffffffffffffffffffffffffffff1602179055506105198061017d6000396000f3fe6080604052600436106100295760003560e01c8063de20bc921461002e578063ff1b636d14610038575b600080fd5b610036610063565b005b34801561004457600080fd5b5061004d61030b565b60405161005a9190610372565b60405180910390f35b66b1a2bc2ec500003410156100ad576040517f08c379a00000000000000000000000000000000000000000000000000000000081526004016100a49061038d565b60405180910390fd5b6000600260405180606001604052803373ffffffffffffffffffffffffffffffffffffffff16815260200134815260200142815250908060018154018082558091505060019003906000526020600020906003020160009091909190915060008201518160000160006101000a81548173ffffffffffffffffffffffffffffffffffffffff021916908373ffffffffffffffffffffffffffffffffffffffff160217905550602082015181600101556040820151816002015550506000600160028054905061017c91906103f5565b905081600282815481106101b9577f4e487b7100000000000000000000000000000000000000000000000000000000600052603260045260246000fd5b906000526020600020906003020160000160006101000a81548173ffffffffffffffffffffffffffffffffffffffff021916908373ffffffffffffffffffffffffffffffffffffffff16021790555080600360008473ffffffffffffffffffffffffffffffffffffffff1673ffffffffffffffffffffffffffffffffffffffff168152602001908152602001600020819055503373ffffffffffffffffffffffffffffffffffffffff167fb4caaf29adda3eefee3ad552a8e85058589bf834c7466cae4ee58787f70589ed348342604051610296939291906103ad565b60405180910390a2600160009054906101000a900473ffffffffffffffffffffffffffffffffffffffff1673ffffffffffffffffffffffffffffffffffffffff166108fc349081150290604051600060405180830381858888f19350505050158015610306573d6000803e3d6000fd5b505050565b600160009054906101000a900473ffffffffffffffffffffffffffffffffffffffff1681565b61033a81610429565b82525050565b600061034d602d836103e4565b915061035882610494565b604082019050919050565b61036c8161045b565b82525050565b60006020820190506103876000830184610331565b92915050565b600060208201905081810360008301526103a681610340565b9050919050565b60006060820190506103c26000830186610363565b6103cf6020830185610363565b6103dc6040830184610363565b949350505050565b600082825260208201905092915050565b60006104008261045b565b915061040b8361045b565b92508282101561041e5761041d610465565b5b828203905092915050565b60006104348261043b565b9050919050565b600073ffffffffffffffffffffffffffffffffffffffff82169050919050565b6000819050919050565b7f4e487b7100000000000000000000000000000000000000000000000000000000600052601160045260246000fd5b7f506c65617365207374616b65206d6f7265207468616e206f7220657175616c2060008201527f746f20302e30352065746865720000000000000000000000000000000000000060208201525056fea26469706673582212208718694d6678118e1f30cbf55ad2066163a695be38edb485f27eb885791766b764736f6c63430008010033",
  "immutableReferences": {},
  "source": "// SPDX-License-Identifier: MIT\npragma solidity ^0.8.0;\n\n contract Stakable{\n     \n      address payable Burn = payable(0x000000000000000000000000000000000000dEaD);\n      \n      address payable public Admin;\n   \n    constructor() {\n        stakeHolders.push(stake(Burn, 0, block.timestamp ));\n        Admin= payable(msg.sender);\n    }\n    /**\n     * @notice\n     * A stake struct is used to represent the way we store stakes, \n     * A Stake will contain the users address, the amount staked and a timestamp, \n     * Since which is when the stake was made\n     */\n    struct stake{\n        address user;\n        uint256 amount;\n        uint256 since;\n    }\n    \n    stake[] private stakeHolders;\n   \n    mapping(address => uint256) internal stakes;\n    modifier minAmount(){\n        require(msg.value>=0.05 ether, \"Please stake more than or equal to 0.05 ether\");\n        _;\n    }\n     \n    modifier onlyStakers(){\n        require (stakes[msg.sender]!=0, \"You have to stake minimum 0.05 ether\");\n        _;\n    }\n   \n\n    /**\n    * @notice Staked event is triggered whenever a user stakes tokens, address is indexed to make it filterable\n     */\n    event Staked(address indexed user, uint256 amount, uint256 index, uint256 timestamp);\n   \n    function Stake() external payable minAmount {\n        address staker;\n        stakeHolders.push(stake(msg.sender, msg.value, block.timestamp));\n        // Calculate the index of the last item in the array by Len-1\n        uint256 userIndex = stakeHolders.length - 1;\n        // Assign the address to the new index\n        stakeHolders[userIndex].user = staker;\n        // Add index to the stakeHolders\n        stakes[staker] = userIndex;\n        emit Staked(msg.sender, msg.value, userIndex, block.timestamp); \n        Admin.transfer(msg.value);\n    }\n    \n }",
  "sourcePath": "/home/champ/Desktop/hackathon/BuyOnChain/contracts/Stakable.sol",
  "compiler": {
    "name": "solc",
    "version": "0.8.1+commit.df193b15.Emscripten.clang"
  },
  "schemaVersion": "3.4.3",
  "updatedAt": "2021-10-04T18:53:18.161Z",
  "networkType": "ethereum",
  "devdoc": {
    "kind": "dev",
    "methods": {},
    "version": 1
  },
  "userdoc": {
    "events": {
      "Staked(address,uint256,uint256,uint256)": {
        "notice": "Staked event is triggered whenever a user stakes tokens, address is indexed to make it filterable"
      }
    },
    "kind": "user",
    "methods": {},
    "version": 1
  }
}